{
  "contractName": "Course",
  "abi": [
    {
      "inputs": [
        {
          "internalType": "uint256",
          "name": "_buyInTime",
          "type": "uint256"
        },
        {
          "internalType": "uint256",
          "name": "_poolMaturity",
          "type": "uint256"
        },
        {
          "internalType": "uint256",
          "name": "_buyInPrice",
          "type": "uint256"
        },
        {
          "internalType": "address",
          "name": "_tokenAddress",
          "type": "address"
        },
        {
          "internalType": "address",
          "name": "_oracle",
          "type": "address"
        },
        {
          "internalType": "bytes32",
          "name": "_jobId",
          "type": "bytes32"
        },
        {
          "internalType": "address",
          "name": "_aaveToken",
          "type": "address"
        },
        {
          "internalType": "address",
          "name": "_aaveProvider",
          "type": "address"
        },
        {
          "internalType": "address",
          "name": "_linkAddr",
          "type": "address"
        }
      ],
      "stateMutability": "nonpayable",
      "type": "constructor"
    },
    {
      "anonymous": false,
      "inputs": [
        {
          "indexed": true,
          "internalType": "bytes32",
          "name": "id",
          "type": "bytes32"
        }
      ],
      "name": "ChainlinkCancelled",
      "type": "event"
    },
    {
      "anonymous": false,
      "inputs": [
        {
          "indexed": true,
          "internalType": "bytes32",
          "name": "id",
          "type": "bytes32"
        }
      ],
      "name": "ChainlinkFulfilled",
      "type": "event"
    },
    {
      "anonymous": false,
      "inputs": [
        {
          "indexed": true,
          "internalType": "bytes32",
          "name": "id",
          "type": "bytes32"
        }
      ],
      "name": "ChainlinkRequested",
      "type": "event"
    },
    {
      "inputs": [],
      "name": "aTokenAddr",
      "outputs": [
        {
          "internalType": "address",
          "name": "",
          "type": "address"
        }
      ],
      "stateMutability": "view",
      "type": "function",
      "constant": true
    },
    {
      "inputs": [],
      "name": "aaveProviderAddress",
      "outputs": [
        {
          "internalType": "address",
          "name": "",
          "type": "address"
        }
      ],
      "stateMutability": "view",
      "type": "function",
      "constant": true
    },
    {
      "inputs": [],
      "name": "admin",
      "outputs": [
        {
          "internalType": "address",
          "name": "",
          "type": "address"
        }
      ],
      "stateMutability": "view",
      "type": "function",
      "constant": true
    },
    {
      "inputs": [],
      "name": "buyInPrice",
      "outputs": [
        {
          "internalType": "uint256",
          "name": "",
          "type": "uint256"
        }
      ],
      "stateMutability": "view",
      "type": "function",
      "constant": true
    },
    {
      "inputs": [],
      "name": "buyInStartTime",
      "outputs": [
        {
          "internalType": "uint256",
          "name": "",
          "type": "uint256"
        }
      ],
      "stateMutability": "view",
      "type": "function",
      "constant": true
    },
    {
      "inputs": [],
      "name": "buyInTime",
      "outputs": [
        {
          "internalType": "uint256",
          "name": "",
          "type": "uint256"
        }
      ],
      "stateMutability": "view",
      "type": "function",
      "constant": true
    },
    {
      "inputs": [],
      "name": "chainlinkJobId",
      "outputs": [
        {
          "internalType": "bytes32",
          "name": "",
          "type": "bytes32"
        }
      ],
      "stateMutability": "view",
      "type": "function",
      "constant": true
    },
    {
      "inputs": [],
      "name": "chainlinkOracle",
      "outputs": [
        {
          "internalType": "address",
          "name": "",
          "type": "address"
        }
      ],
      "stateMutability": "view",
      "type": "function",
      "constant": true
    },
    {
      "inputs": [],
      "name": "chainlinkPayment",
      "outputs": [
        {
          "internalType": "uint256",
          "name": "",
          "type": "uint256"
        }
      ],
      "stateMutability": "view",
      "type": "function",
      "constant": true
    },
    {
      "inputs": [],
      "name": "currentBuyInPool",
      "outputs": [
        {
          "internalType": "uint8",
          "name": "",
          "type": "uint8"
        }
      ],
      "stateMutability": "view",
      "type": "function",
      "constant": true
    },
    {
      "inputs": [],
      "name": "maturityCycleStart",
      "outputs": [
        {
          "internalType": "uint256",
          "name": "",
          "type": "uint256"
        }
      ],
      "stateMutability": "view",
      "type": "function",
      "constant": true
    },
    {
      "inputs": [],
      "name": "nextToMature",
      "outputs": [
        {
          "internalType": "uint8",
          "name": "",
          "type": "uint8"
        }
      ],
      "stateMutability": "view",
      "type": "function",
      "constant": true
    },
    {
      "inputs": [],
      "name": "poolMaturity",
      "outputs": [
        {
          "internalType": "uint256",
          "name": "",
          "type": "uint256"
        }
      ],
      "stateMutability": "view",
      "type": "function",
      "constant": true
    },
    {
      "inputs": [],
      "name": "tokenAddress",
      "outputs": [
        {
          "internalType": "address",
          "name": "",
          "type": "address"
        }
      ],
      "stateMutability": "view",
      "type": "function",
      "constant": true
    },
    {
      "inputs": [],
      "name": "initialize",
      "outputs": [],
      "stateMutability": "nonpayable",
      "type": "function"
    },
    {
      "inputs": [],
      "name": "invest",
      "outputs": [],
      "stateMutability": "nonpayable",
      "type": "function"
    },
    {
      "inputs": [],
      "name": "payOut",
      "outputs": [],
      "stateMutability": "nonpayable",
      "type": "function"
    },
    {
      "inputs": [],
      "name": "getCurrentPool",
      "outputs": [
        {
          "internalType": "address",
          "name": "",
          "type": "address"
        }
      ],
      "stateMutability": "view",
      "type": "function",
      "constant": true
    },
    {
      "inputs": [],
      "name": "getMaturity",
      "outputs": [
        {
          "internalType": "uint256",
          "name": "",
          "type": "uint256"
        }
      ],
      "stateMutability": "view",
      "type": "function",
      "constant": true
    },
    {
      "inputs": [
        {
          "internalType": "uint8",
          "name": "poolIndex",
          "type": "uint8"
        }
      ],
      "name": "getPoolByIndex",
      "outputs": [
        {
          "internalType": "address",
          "name": "",
          "type": "address"
        }
      ],
      "stateMutability": "view",
      "type": "function",
      "constant": true
    }
  ],
  "bytecode": "0x60806040526001600455670de0b6b3a7640000600102600d553480156200002557600080fd5b5060405162002b4e38038062002b4e83398181016040526101208110156200004c57600080fd5b8101908080519060200190929190805190602001909291908051906020019092919080519060200190929190805190602001909291908051906020019092919080519060200190929190805190602001909291908051906020019092919050505088600681905550876007819055508660088190555085600a60006101000a81548173ffffffffffffffffffffffffffffffffffffffff021916908373ffffffffffffffffffffffffffffffffffffffff16021790555033600960006101000a81548173ffffffffffffffffffffffffffffffffffffffff021916908373ffffffffffffffffffffffffffffffffffffffff16021790555082600f60006101000a81548173ffffffffffffffffffffffffffffffffffffffff021916908373ffffffffffffffffffffffffffffffffffffffff16021790555081600e60006101000a81548173ffffffffffffffffffffffffffffffffffffffff021916908373ffffffffffffffffffffffffffffffffffffffff16021790555060008090505b600160065460075481620001dc57fe5b04018160ff161015620002d157600960009054906101000a900473ffffffffffffffffffffffffffffffffffffffff166040516200021a9062000475565b808273ffffffffffffffffffffffffffffffffffffffff1673ffffffffffffffffffffffffffffffffffffffff168152602001915050604051809103906000f0801580156200026d573d6000803e3d6000fd5b50601260008360ff1660ff16815260200190815260200160002060006101000a81548173ffffffffffffffffffffffffffffffffffffffff021916908373ffffffffffffffffffffffffffffffffffffffff160217905550806001019050620001cc565b5084600b60006101000a81548173ffffffffffffffffffffffffffffffffffffffff021916908373ffffffffffffffffffffffffffffffffffffffff16021790555083600c81905550600073ffffffffffffffffffffffffffffffffffffffff168173ffffffffffffffffffffffffffffffffffffffff1614156200036657620003606200038760201b60201c565b62000378565b62000377816200043160201b60201c565b5b50505050505050505062000483565b6200042f73c89bd4e1632d3a43cb03aaad5262cbe4038bc57173ffffffffffffffffffffffffffffffffffffffff166338cc48316040518163ffffffff1660e01b815260040160206040518083038186803b158015620003e657600080fd5b505afa158015620003fb573d6000803e3d6000fd5b505050506040513d60208110156200041257600080fd5b81019080805190602001909291905050506200043160201b60201c565b565b80600260006101000a81548173ffffffffffffffffffffffffffffffffffffffff021916908373ffffffffffffffffffffffffffffffffffffffff16021790555050565b610ef38062001c5b83390190565b6117c880620004936000396000f3fe608060405234801561001057600080fd5b506004361061012c5760003560e01c80639e740822116100ad578063e8b5e51f11610071578063e8b5e51f146103a8578063ef06e72c146103b2578063efbc17b4146103fc578063f851a44014610420578063fec732c01461046a5761012c565b80639e740822146102f4578063c205240314610312578063e16695b51461031c578063e41a055a1461033a578063e4993f69146103845761012c565b80638d8d770a116100f45780638d8d770a146102325780638e42a4321461025057806394ef45cb1461026e57806396055b5a1461028c5780639d76ea58146102aa5761012c565b80630b687675146101315780631a595f651461014f57806351758733146101995780635f706e9a146101b75780638129fc1c14610228575b600080fd5b6101396104b4565b6040518082815260200191505060405180910390f35b6101576104ba565b604051808273ffffffffffffffffffffffffffffffffffffffff1673ffffffffffffffffffffffffffffffffffffffff16815260200191505060405180910390f35b6101a161050a565b6040518082815260200191505060405180910390f35b6101e6600480360360208110156101cd57600080fd5b81019080803560ff169060200190929190505050610510565b604051808273ffffffffffffffffffffffffffffffffffffffff1673ffffffffffffffffffffffffffffffffffffffff16815260200191505060405180910390f35b610230610553565b005b61023a6106b9565b6040518082815260200191505060405180910390f35b6102586106bf565b6040518082815260200191505060405180910390f35b6102766106c5565b6040518082815260200191505060405180910390f35b6102946106cb565b6040518082815260200191505060405180910390f35b6102b26106d1565b604051808273ffffffffffffffffffffffffffffffffffffffff1673ffffffffffffffffffffffffffffffffffffffff16815260200191505060405180910390f35b6102fc6106f7565b6040518082815260200191505060405180910390f35b61031a6106fd565b005b61032461091c565b6040518082815260200191505060405180910390f35b610342610942565b604051808273ffffffffffffffffffffffffffffffffffffffff1673ffffffffffffffffffffffffffffffffffffffff16815260200191505060405180910390f35b61038c610968565b604051808260ff1660ff16815260200191505060405180910390f35b6103b061097b565b005b6103ba610cf1565b604051808273ffffffffffffffffffffffffffffffffffffffff1673ffffffffffffffffffffffffffffffffffffffff16815260200191505060405180910390f35b610404610d17565b604051808260ff1660ff16815260200191505060405180910390f35b610428610d2a565b604051808273ffffffffffffffffffffffffffffffffffffffff1673ffffffffffffffffffffffffffffffffffffffff16815260200191505060405180910390f35b610472610d50565b604051808273ffffffffffffffffffffffffffffffffffffffff1673ffffffffffffffffffffffffffffffffffffffff16815260200191505060405180910390f35b600d5481565b600060126000601360019054906101000a900460ff1660ff1660ff16815260200190815260200160002060009054906101000a900473ffffffffffffffffffffffffffffffffffffffff16905090565b600c5481565b6000601260008360ff1660ff16815260200190815260200160002060009054906101000a900473ffffffffffffffffffffffffffffffffffffffff169050919050565b42601081905550426011819055506105696116e8565b61057d600c543063e8b5e51f60e01b610d76565b90506105cf6040518060400160405280600581526020017f756e74696c0000000000000000000000000000000000000000000000000000008152506006546011540183610da79092919063ffffffff16565b6105fe600b60009054906101000a900473ffffffffffffffffffffffffffffffffffffffff1682600d54610dda565b506106076116e8565b61061b600c543063c205240360e01b610d76565b90506106856040518060400160405280600581526020017f756e74696c000000000000000000000000000000000000000000000000000000815250600754600654601360019054906101000a900460ff1660ff1602601154010183610da79092919063ffffffff16565b6106b4600b60009054906101000a900473ffffffffffffffffffffffffffffffffffffffff1682600d54610dda565b505050565b60075481565b60115481565b60065481565b60105481565b600a60009054906101000a900473ffffffffffffffffffffffffffffffffffffffff1681565b60085481565b600654601360009054906101000a900460ff1660ff1660016006546007548161072257fe5b04010302600754601054010142101561073a57600080fd5b60126000601360009054906101000a900460ff1660ff1660ff16815260200190815260200160002060009054906101000a900473ffffffffffffffffffffffffffffffffffffffff1673ffffffffffffffffffffffffffffffffffffffff1663056d380c600a60009054906101000a900473ffffffffffffffffffffffffffffffffffffffff16600f60009054906101000a900473ffffffffffffffffffffffffffffffffffffffff166040518363ffffffff1660e01b8152600401808373ffffffffffffffffffffffffffffffffffffffff1673ffffffffffffffffffffffffffffffffffffffff1681526020018273ffffffffffffffffffffffffffffffffffffffff1673ffffffffffffffffffffffffffffffffffffffff16815260200192505050600060405180830381600087803b15801561087957600080fd5b505af115801561088d573d6000803e3d6000fd5b505050506001600654600754816108a057fe5b04016001601360009054906101000a900460ff160160ff16816108bf57fe5b06601360006101000a81548160ff021916908360ff1602179055506000601360009054906101000a900460ff1660ff16141561091a5760065460016006546007548161090757fe5b0401026010600082825401925050819055505b565b6000600654601360009054906101000a900460ff1660ff16026007546010540101905090565b600e60009054906101000a900473ffffffffffffffffffffffffffffffffffffffff1681565b601360009054906101000a900460ff1681565b601360019054906101000a900460ff1660ff1660065402601154014210156109a257600080fd5b60126000601360019054906101000a900460ff1660ff1660ff16815260200190815260200160002060009054906101000a900473ffffffffffffffffffffffffffffffffffffffff1673ffffffffffffffffffffffffffffffffffffffff1663ff8a4efe600a60009054906101000a900473ffffffffffffffffffffffffffffffffffffffff16600e60009054906101000a900473ffffffffffffffffffffffffffffffffffffffff166040518363ffffffff1660e01b8152600401808373ffffffffffffffffffffffffffffffffffffffff1673ffffffffffffffffffffffffffffffffffffffff1681526020018273ffffffffffffffffffffffffffffffffffffffff1673ffffffffffffffffffffffffffffffffffffffff16815260200192505050600060405180830381600087803b158015610ae157600080fd5b505af1158015610af5573d6000803e3d6000fd5b50505050600160065460075481610b0857fe5b04016001601360019054906101000a900460ff160160ff1681610b2757fe5b06601360016101000a81548160ff021916908360ff1602179055506000601360019054906101000a900460ff1660ff161415610b8257600654600160065460075481610b6f57fe5b0401026011600082825401925050819055505b610b8a6116e8565b610b9e600c543063e8b5e51f60e01b610d76565b9050610c076040518060400160405280600581526020017f756e74696c0000000000000000000000000000000000000000000000000000008152506006546001601360019054906101000a900460ff160160ff16026011540183610da79092919063ffffffff16565b610c36600b60009054906101000a900473ffffffffffffffffffffffffffffffffffffffff1682600d54610dda565b50610c3f6116e8565b610c53600c543063c205240360e01b610d76565b9050610cbd6040518060400160405280600581526020017f756e74696c000000000000000000000000000000000000000000000000000000815250600754600654601360019054906101000a900460ff1660ff1602601154010183610da79092919063ffffffff16565b610cec600b60009054906101000a900473ffffffffffffffffffffffffffffffffffffffff1682600d54610dda565b505050565b600b60009054906101000a900473ffffffffffffffffffffffffffffffffffffffff1681565b601360019054906101000a900460ff1681565b600960009054906101000a900473ffffffffffffffffffffffffffffffffffffffff1681565b600f60009054906101000a900473ffffffffffffffffffffffffffffffffffffffff1681565b610d7e6116e8565b610d866116e8565b610d9d85858584611092909392919063ffffffff16565b9150509392505050565b610dbe82846080015161114290919063ffffffff16565b610dd581846080015161116790919063ffffffff16565b505050565b600030600454604051602001808373ffffffffffffffffffffffffffffffffffffffff1673ffffffffffffffffffffffffffffffffffffffff1660601b815260140182815260200192505050604051602081830303815290604052805190602001209050600454836060018181525050836005600083815260200190815260200160002060006101000a81548173ffffffffffffffffffffffffffffffffffffffff021916908373ffffffffffffffffffffffffffffffffffffffff160217905550807fb5e6e01e79f91267dc17b4e6314d5d4d03593d2ceee0fbb452b750bd70ea5af960405160405180910390a2600260009054906101000a900473ffffffffffffffffffffffffffffffffffffffff1673ffffffffffffffffffffffffffffffffffffffff16634000aea08584610f1287611177565b6040518463ffffffff1660e01b8152600401808473ffffffffffffffffffffffffffffffffffffffff1673ffffffffffffffffffffffffffffffffffffffff16815260200183815260200180602001828103825283818151815260200191508051906020019080838360005b83811015610f99578082015181840152602081019050610f7e565b50505050905090810190601f168015610fc65780820380516001836020036101000a031916815260200191505b50945050505050602060405180830381600087803b158015610fe757600080fd5b505af1158015610ffb573d6000803e3d6000fd5b505050506040513d602081101561101157600080fd5b8101908080519060200190929190505050611077576040517f08c379a00000000000000000000000000000000000000000000000000000000081526004018080602001828103825260238152602001806117706023913960400191505060405180910390fd5b60016004600082825401925050819055508090509392505050565b61109a6116e8565b6110aa8560800151610100611343565b508385600001818152505082856020019073ffffffffffffffffffffffffffffffffffffffff16908173ffffffffffffffffffffffffffffffffffffffff16815250508185604001907bffffffffffffffffffffffffffffffffffffffffffffffffffffffff191690817bffffffffffffffffffffffffffffffffffffffffffffffffffffffff191681525050849050949350505050565b61114f8260038351611397565b61116281836114dc90919063ffffffff16565b505050565b61117382600083611397565b5050565b6060634042994660e01b60008084600001518560200151866040015187606001516001896080015160000151604051602401808973ffffffffffffffffffffffffffffffffffffffff1673ffffffffffffffffffffffffffffffffffffffff1681526020018881526020018781526020018673ffffffffffffffffffffffffffffffffffffffff1673ffffffffffffffffffffffffffffffffffffffff168152602001857bffffffffffffffffffffffffffffffffffffffffffffffffffffffff19167bffffffffffffffffffffffffffffffffffffffffffffffffffffffff1916815260200184815260200183815260200180602001828103825283818151815260200191508051906020019080838360005b838110156112a657808201518184015260208101905061128b565b50505050905090810190601f1680156112d35780820380516001836020036101000a031916815260200191505b509950505050505050505050604051602081830303815290604052907bffffffffffffffffffffffffffffffffffffffffffffffffffffffff19166020820180517bffffffffffffffffffffffffffffffffffffffffffffffffffffffff83818316178352505050509050919050565b61134b611755565b60006020838161135757fe5b0614611370576020828161136757fe5b06602003820191505b81836020018181525050604051808452600081528281016020016040525082905092915050565b601781116113c4576113be8160058460ff16901b60ff1617846114fe90919063ffffffff16565b506114d7565b60ff8111611406576113e9601860058460ff16901b17846114fe90919063ffffffff16565b506114008160018561151e9092919063ffffffff16565b506114d6565b61ffff81116114495761142c601960058460ff16901b17846114fe90919063ffffffff16565b506114438160028561151e9092919063ffffffff16565b506114d5565b63ffffffff811161148e57611471601a60058460ff16901b17846114fe90919063ffffffff16565b506114888160048561151e9092919063ffffffff16565b506114d4565b67ffffffffffffffff81116114d3576114ba601b60058460ff16901b17846114fe90919063ffffffff16565b506114d18160088561151e9092919063ffffffff16565b505b5b5b5b5b505050565b6114e4611755565b6114f683846000015151848551611540565b905092915050565b611506611755565b61151683846000015151846115f9565b905092915050565b611526611755565b611537848560000151518585611647565b90509392505050565b611548611755565b825182111561155657600080fd5b846020015182850111156115815761158085600261157a88602001518887016116a8565b026116c4565b5b6000808651805187602083010193508088870111156115a05787860182525b60208701925050505b602084106115cc57805182526020820191506020810190506020840393506115a9565b60006001856020036101000a03905080198251168184511681811785525050879350505050949350505050565b611601611755565b8360200151831061161e5761161d8460028660200151026116c4565b5b835180516020858301018481538186141561163a576001820183525b5050508390509392505050565b61164f611755565b8460200151848301111561166d5761166c856002868501026116c4565b5b60006001836101000a039050855183868201018583198251161781528151858801111561169a5784870182525b505085915050949350505050565b6000818311156116ba578290506116be565b8190505b92915050565b6060826000015190506116d78383611343565b506116e283826114dc565b50505050565b6040518060a0016040528060008019168152602001600073ffffffffffffffffffffffffffffffffffffffff16815260200160007bffffffffffffffffffffffffffffffffffffffffffffffffffffffff191681526020016000815260200161174f611755565b81525090565b60405180604001604052806060815260200160008152509056fe756e61626c6520746f207472616e73666572416e6443616c6c20746f206f7261636c65a2646970667358221220e6452f8b84c725cf19c9f9f1b0bd8d31397770cab8f321c4e8a2cd0df217371c64736f6c634300060700336080604052600060045534801561001557600080fd5b50604051610ef3380380610ef38339818101604052602081101561003857600080fd5b8101908080519060200190929190505050806000806101000a81548173ffffffffffffffffffffffffffffffffffffffff021916908373ffffffffffffffffffffffffffffffffffffffff16021790555033600160006101000a81548173ffffffffffffffffffffffffffffffffffffffff021916908373ffffffffffffffffffffffffffffffffffffffff16021790555050610e19806100da6000396000f3fe608060405234801561001057600080fd5b50600436106100625760003560e01c8063056d380c146100675780630a91bc1d146100cb5780636e9960c31461010f578063cde0d67214610159578063f851a44014610177578063ff8a4efe146101c1575b600080fd5b6100c96004803603604081101561007d57600080fd5b81019080803573ffffffffffffffffffffffffffffffffffffffff169060200190929190803573ffffffffffffffffffffffffffffffffffffffff169060200190929190505050610225565b005b61010d600480360360208110156100e157600080fd5b81019080803573ffffffffffffffffffffffffffffffffffffffff1690602001909291905050506107f0565b005b610117610948565b604051808273ffffffffffffffffffffffffffffffffffffffff1673ffffffffffffffffffffffffffffffffffffffff16815260200191505060405180910390f35b610161610971565b6040518082815260200191505060405180910390f35b61017f610977565b604051808273ffffffffffffffffffffffffffffffffffffffff1673ffffffffffffffffffffffffffffffffffffffff16815260200191505060405180910390f35b610223600480360360408110156101d757600080fd5b81019080803573ffffffffffffffffffffffffffffffffffffffff169060200190929190803573ffffffffffffffffffffffffffffffffffffffff16906020019092919050505061099c565b005b600160009054906101000a900473ffffffffffffffffffffffffffffffffffffffff1673ffffffffffffffffffffffffffffffffffffffff163373ffffffffffffffffffffffffffffffffffffffff161461027f57600080fd5b60008190508073ffffffffffffffffffffffffffffffffffffffff1663db006a758273ffffffffffffffffffffffffffffffffffffffff166370a08231306040518263ffffffff1660e01b8152600401808273ffffffffffffffffffffffffffffffffffffffff1673ffffffffffffffffffffffffffffffffffffffff16815260200191505060206040518083038186803b15801561031d57600080fd5b505afa158015610331573d6000803e3d6000fd5b505050506040513d602081101561034757600080fd5b81019080805190602001909291905050506040518263ffffffff1660e01b815260040180828152602001915050600060405180830381600087803b15801561038e57600080fd5b505af11580156103a2573d6000803e3d6000fd5b50505050600083905060006004541461060d5760006004548273ffffffffffffffffffffffffffffffffffffffff166370a08231306040518263ffffffff1660e01b8152600401808273ffffffffffffffffffffffffffffffffffffffff1673ffffffffffffffffffffffffffffffffffffffff16815260200191505060206040518083038186803b15801561043757600080fd5b505afa15801561044b573d6000803e3d6000fd5b505050506040513d602081101561046157600080fd5b81019080805190602001909291905050508161047957fe5b0490506000600360009054906101000a900473ffffffffffffffffffffffffffffffffffffffff1690505b600073ffffffffffffffffffffffffffffffffffffffff168173ffffffffffffffffffffffffffffffffffffffff1614610602578273ffffffffffffffffffffffffffffffffffffffff1663a9059cbb82846040518363ffffffff1660e01b8152600401808373ffffffffffffffffffffffffffffffffffffffff1673ffffffffffffffffffffffffffffffffffffffff16815260200182815260200192505050602060405180830381600087803b15801561055f57600080fd5b505af1158015610573573d6000803e3d6000fd5b505050506040513d602081101561058957600080fd5b810190808051906020019092919050505050600260008273ffffffffffffffffffffffffffffffffffffffff1673ffffffffffffffffffffffffffffffffffffffff16815260200190815260200160002060009054906101000a900473ffffffffffffffffffffffffffffffffffffffff1690506104a4565b600060048190555050505b8073ffffffffffffffffffffffffffffffffffffffff1663a9059cbb6000809054906101000a900473ffffffffffffffffffffffffffffffffffffffff168373ffffffffffffffffffffffffffffffffffffffff166370a08231306040518263ffffffff1660e01b8152600401808273ffffffffffffffffffffffffffffffffffffffff1673ffffffffffffffffffffffffffffffffffffffff16815260200191505060206040518083038186803b1580156106c857600080fd5b505afa1580156106dc573d6000803e3d6000fd5b505050506040513d60208110156106f257600080fd5b81019080805190602001909291905050506040518363ffffffff1660e01b8152600401808373ffffffffffffffffffffffffffffffffffffffff1673ffffffffffffffffffffffffffffffffffffffff16815260200182815260200192505050602060405180830381600087803b15801561076c57600080fd5b505af1158015610780573d6000803e3d6000fd5b505050506040513d602081101561079657600080fd5b8101908080519060200190929190505050506000600360006101000a81548173ffffffffffffffffffffffffffffffffffffffff021916908373ffffffffffffffffffffffffffffffffffffffff16021790555050505050565b6000809054906101000a900473ffffffffffffffffffffffffffffffffffffffff1673ffffffffffffffffffffffffffffffffffffffff163373ffffffffffffffffffffffffffffffffffffffff161461084957600080fd5b6000600454146108f457600360009054906101000a900473ffffffffffffffffffffffffffffffffffffffff16600260008373ffffffffffffffffffffffffffffffffffffffff1673ffffffffffffffffffffffffffffffffffffffff16815260200190815260200160002060006101000a81548173ffffffffffffffffffffffffffffffffffffffff021916908373ffffffffffffffffffffffffffffffffffffffff1602179055505b80600360006101000a81548173ffffffffffffffffffffffffffffffffffffffff021916908373ffffffffffffffffffffffffffffffffffffffff1602179055506004600081546001019190508190555050565b60008060009054906101000a900473ffffffffffffffffffffffffffffffffffffffff16905090565b60045481565b6000809054906101000a900473ffffffffffffffffffffffffffffffffffffffff1681565b600160009054906101000a900473ffffffffffffffffffffffffffffffffffffffff1673ffffffffffffffffffffffffffffffffffffffff163373ffffffffffffffffffffffffffffffffffffffff16146109f657600080fd5b600082905060008290508173ffffffffffffffffffffffffffffffffffffffff1663095ea7b38273ffffffffffffffffffffffffffffffffffffffff1663ed6ff7606040518163ffffffff1660e01b815260040160206040518083038186803b158015610a6257600080fd5b505afa158015610a76573d6000803e3d6000fd5b505050506040513d6020811015610a8c57600080fd5b81019080805190602001909291905050508473ffffffffffffffffffffffffffffffffffffffff166370a08231306040518263ffffffff1660e01b8152600401808273ffffffffffffffffffffffffffffffffffffffff1673ffffffffffffffffffffffffffffffffffffffff16815260200191505060206040518083038186803b158015610b1a57600080fd5b505afa158015610b2e573d6000803e3d6000fd5b505050506040513d6020811015610b4457600080fd5b81019080805190602001909291905050506040518363ffffffff1660e01b8152600401808373ffffffffffffffffffffffffffffffffffffffff1673ffffffffffffffffffffffffffffffffffffffff16815260200182815260200192505050602060405180830381600087803b158015610bbe57600080fd5b505af1158015610bd2573d6000803e3d6000fd5b505050506040513d6020811015610be857600080fd5b8101908080519060200190929190505050508073ffffffffffffffffffffffffffffffffffffffff16630261bf8b6040518163ffffffff1660e01b815260040160206040518083038186803b158015610c4057600080fd5b505afa158015610c54573d6000803e3d6000fd5b505050506040513d6020811015610c6a57600080fd5b810190808051906020019092919050505073ffffffffffffffffffffffffffffffffffffffff1663d2d0e066858473ffffffffffffffffffffffffffffffffffffffff166370a08231306040518263ffffffff1660e01b8152600401808273ffffffffffffffffffffffffffffffffffffffff1673ffffffffffffffffffffffffffffffffffffffff16815260200191505060206040518083038186803b158015610d1457600080fd5b505afa158015610d28573d6000803e3d6000fd5b505050506040513d6020811015610d3e57600080fd5b810190808051906020019092919050505060006040518463ffffffff1660e01b8152600401808473ffffffffffffffffffffffffffffffffffffffff1673ffffffffffffffffffffffffffffffffffffffff1681526020018381526020018261ffff1681526020019350505050600060405180830381600087803b158015610dc557600080fd5b505af1158015610dd9573d6000803e3d6000fd5b505050505050505056fea2646970667358221220da3dfdf45a2d1bf036c6d8e4d504c954373c646984fad1b786246f54125ead8364736f6c63430006070033",
  "immutableReferences": {},
  "source": "pragma solidity >=0.4.21 < 0.7.0;\n\nimport \"./SinglePool.sol\";\n// import ChainlinkClient.sol\nimport \"../../chainlink/evm-contracts/src/v0.6/ChainlinkClient.sol\";\n\n// if deploying via remix:\n/*\nimport \"SinglePool.sol\";\n// import ChainlinkClient.sol\nimport \"https://github.com/smartcontractkit/chainlink/blob/develop/evm-contracts/src/v0.6/ChainlinkClient.sol\";\n*/\n\ncontract Course is ChainlinkClient {\n\t//configuration stuff\n\tuint public buyInTime;\n\tuint public poolMaturity;\n\tuint public buyInPrice;\n\taddress public admin;\n\taddress public tokenAddress;\n\n\t//chainlink stuff\n\taddress public chainlinkOracle;\n\tbytes32 public chainlinkJobId;\n\tuint public chainlinkPayment = 1 * LINK;\n\n\t//aave stuff\n\taddress public aaveProviderAddress;\n\taddress public aTokenAddr;\n\n\t// true state variables\n\t//uint public startTime;\n\tuint public maturityCycleStart;\n\tuint public buyInStartTime;\n\t// the number of SinglePool s in allPools is known at construction time to be:\n\t// uint(poolMaturity/buyInTime) + 1\n\tmapping (uint8 => SinglePool) private allPools;\n\n\t//nextToMature stores the index of the next SinglePool to mature\n\tuint8 public nextToMature; \n\tuint8 public currentBuyInPool;\n\tmodifier adminOnly {\n\t\trequire (msg.sender == admin);\n\t\t_;\n\t}\n\n\n\t// TODO: modifier timeIsRight;\n\t// see below.\n\tmodifier poolIsMature {\n\t\trequire(now >= maturityCycleStart + poolMaturity + (uint(poolMaturity/buyInTime)+1-nextToMature)*buyInTime);\n\t\t_;\n\t}\n\n\tmodifier buyInOver {\n\t\trequire(now >= buyInStartTime + buyInTime*currentBuyInPool); \n\t\t_;\n\t}\n\n\tconstructor(uint _buyInTime, uint _poolMaturity, uint _buyInPrice, \n\t\taddress _tokenAddress, address _oracle, bytes32 _jobId, \n\t\taddress _aaveToken, address _aaveProvider, address _linkAddr) public {\n\n\t\tbuyInTime = _buyInTime;\n\t\tpoolMaturity = _poolMaturity;\n\t\tbuyInPrice = _buyInPrice;\n\t\ttokenAddress = _tokenAddress;\n\t\tadmin = msg.sender;\n\t\t// startTime = block.number;\n\t\t\n\t\taTokenAddr = _aaveToken;\n\t\taaveProviderAddress = _aaveProvider;\n\t\tfor (uint8 i=0; i < uint(poolMaturity/buyInTime) + 1; ++i) {\n\t\t\tallPools[i] = new SinglePool(admin);\n\t\t}\n\t\tchainlinkOracle = _oracle;\n\t\tchainlinkJobId = _jobId;\n\t\tif (_linkAddr == address(0)) {\n\t\t\tsetPublicChainlinkToken();\n\t\t} else {\n\t\t\tsetChainlinkToken(_linkAddr);\n\t\t}\n\t}\n\tfunction initialize() public {\n\t    maturityCycleStart = now;\n\t\tbuyInStartTime = now;\n\t\tChainlink.Request memory investReq = buildChainlinkRequest(chainlinkJobId, address(this), this.invest.selector);\n\t\tinvestReq.addUint(\"until\", buyInStartTime + buyInTime);\n\t\tsendChainlinkRequestTo(chainlinkOracle, investReq, chainlinkPayment);\n\n\t\tChainlink.Request memory payoutReq = buildChainlinkRequest(chainlinkJobId, address(this), this.payOut.selector);\n\t\tpayoutReq.addUint(\"until\", buyInStartTime + currentBuyInPool * buyInTime + poolMaturity);\n\t\tsendChainlinkRequestTo(chainlinkOracle, payoutReq, chainlinkPayment);\n\t}\n\tfunction invest() public buyInOver {\n\t\tallPools[currentBuyInPool].invest(tokenAddress, aaveProviderAddress);\n\t\tcurrentBuyInPool = uint8((currentBuyInPool + 1) % uint(poolMaturity/buyInTime + 1));\n\t\tif (currentBuyInPool == 0)\n\t\t\tbuyInStartTime += (uint(poolMaturity/buyInTime) + 1) * buyInTime;\n\t\tChainlink.Request memory investReq = buildChainlinkRequest(chainlinkJobId, address(this), this.invest.selector);\n\t\tinvestReq.addUint(\"until\", buyInStartTime + (currentBuyInPool + 1) * buyInTime);\n\t\tsendChainlinkRequestTo(chainlinkOracle, investReq, chainlinkPayment);\n\t\tChainlink.Request memory payoutReq = buildChainlinkRequest(chainlinkJobId, address(this), this.payOut.selector);\n\t\tpayoutReq.addUint(\"until\", buyInStartTime + currentBuyInPool * buyInTime + poolMaturity);\n\t\tsendChainlinkRequestTo(chainlinkOracle, payoutReq, chainlinkPayment);\n\t}\n\n\tfunction payOut() public poolIsMature {\n\t\tallPools[nextToMature].reset(tokenAddress, aTokenAddr);\n\t\tnextToMature = uint8((nextToMature + 1) % uint(poolMaturity/buyInTime + 1));\n\t\tif (nextToMature == 0)\n\t\t\tmaturityCycleStart += (uint(poolMaturity/buyInTime) + 1) * buyInTime;\n\t}\n\n\tfunction getCurrentPool() public view returns (address) {\n\t\treturn address(allPools[ currentBuyInPool ]);\n\t}\n\n\t/*function getAllPools() public view returns (address[] memory) {\n\t\taddress[] memory poolAddresses;\n\t\tfor (uint8 i = 0; i < uint8(poolMaturity/buyInTime) + 1; ++i) {\n\t\t\tpoolAddresses[i] = address(allPools[i]);\n\t\t}\t\n\t\treturn poolAddresses;\n\t}*/\n\n\tfunction getMaturity() public view returns (uint) {\n\t\t// fix: change (uint(poolMaturity/buyInTime)+1-nextToMature) to: nextToMature\n\t\treturn maturityCycleStart + poolMaturity + nextToMature*buyInTime;\n\t}\n\n\tfunction getPoolByIndex(uint8 poolIndex) public view returns (address) {\n\t\treturn address(allPools[poolIndex]);\n\t}\n}\n",
  "sourcePath": "/home/daniel/truffle_projects/LearnAndEarn/contracts/Course.sol",
  "compiler": {
    "name": "solc",
    "version": "0.6.7+commit.b8d736ae.Emscripten.clang"
  },
  "schemaVersion": "3.1.0",
  "updatedAt": "2020-05-22T18:48:14.718Z",
  "networkType": "ethereum",
  "devdoc": {
    "methods": {}
  },
  "userdoc": {
    "methods": {}
  }
}