{
  "contractName": "Course",
  "abi": [
    {
      "inputs": [
        {
          "internalType": "uint256",
          "name": "_buyInTime",
          "type": "uint256"
        },
        {
          "internalType": "uint256",
          "name": "_poolMaturity",
          "type": "uint256"
        },
        {
          "internalType": "uint256",
          "name": "_buyInPrice",
          "type": "uint256"
        },
        {
          "internalType": "address",
          "name": "_tokenAddress",
          "type": "address"
        },
        {
          "internalType": "address",
          "name": "_oracle",
          "type": "address"
        },
        {
          "internalType": "bytes32",
          "name": "_jobId",
          "type": "bytes32"
        },
        {
          "internalType": "address",
          "name": "_aaveToken",
          "type": "address"
        },
        {
          "internalType": "address",
          "name": "_aaveProvider",
          "type": "address"
        },
        {
          "internalType": "address",
          "name": "_linkAddr",
          "type": "address"
        }
      ],
      "stateMutability": "nonpayable",
      "type": "constructor"
    },
    {
      "anonymous": false,
      "inputs": [
        {
          "indexed": true,
          "internalType": "bytes32",
          "name": "id",
          "type": "bytes32"
        }
      ],
      "name": "ChainlinkCancelled",
      "type": "event"
    },
    {
      "anonymous": false,
      "inputs": [
        {
          "indexed": true,
          "internalType": "bytes32",
          "name": "id",
          "type": "bytes32"
        }
      ],
      "name": "ChainlinkFulfilled",
      "type": "event"
    },
    {
      "anonymous": false,
      "inputs": [
        {
          "indexed": true,
          "internalType": "bytes32",
          "name": "id",
          "type": "bytes32"
        }
      ],
      "name": "ChainlinkRequested",
      "type": "event"
    },
    {
      "inputs": [],
      "name": "aTokenAddr",
      "outputs": [
        {
          "internalType": "address",
          "name": "",
          "type": "address"
        }
      ],
      "stateMutability": "view",
      "type": "function"
    },
    {
      "inputs": [],
      "name": "aaveProviderAddress",
      "outputs": [
        {
          "internalType": "address",
          "name": "",
          "type": "address"
        }
      ],
      "stateMutability": "view",
      "type": "function"
    },
    {
      "inputs": [],
      "name": "admin",
      "outputs": [
        {
          "internalType": "address",
          "name": "",
          "type": "address"
        }
      ],
      "stateMutability": "view",
      "type": "function"
    },
    {
      "inputs": [],
      "name": "buyInPrice",
      "outputs": [
        {
          "internalType": "uint256",
          "name": "",
          "type": "uint256"
        }
      ],
      "stateMutability": "view",
      "type": "function"
    },
    {
      "inputs": [],
      "name": "buyInStartTime",
      "outputs": [
        {
          "internalType": "uint256",
          "name": "",
          "type": "uint256"
        }
      ],
      "stateMutability": "view",
      "type": "function"
    },
    {
      "inputs": [],
      "name": "buyInTime",
      "outputs": [
        {
          "internalType": "uint256",
          "name": "",
          "type": "uint256"
        }
      ],
      "stateMutability": "view",
      "type": "function"
    },
    {
      "inputs": [],
      "name": "chainlinkJobId",
      "outputs": [
        {
          "internalType": "bytes32",
          "name": "",
          "type": "bytes32"
        }
      ],
      "stateMutability": "view",
      "type": "function"
    },
    {
      "inputs": [],
      "name": "chainlinkOracle",
      "outputs": [
        {
          "internalType": "address",
          "name": "",
          "type": "address"
        }
      ],
      "stateMutability": "view",
      "type": "function"
    },
    {
      "inputs": [],
      "name": "chainlinkPayment",
      "outputs": [
        {
          "internalType": "uint256",
          "name": "",
          "type": "uint256"
        }
      ],
      "stateMutability": "view",
      "type": "function"
    },
    {
      "inputs": [],
      "name": "currentBuyInPool",
      "outputs": [
        {
          "internalType": "uint8",
          "name": "",
          "type": "uint8"
        }
      ],
      "stateMutability": "view",
      "type": "function"
    },
    {
      "inputs": [],
      "name": "maturityCycleStart",
      "outputs": [
        {
          "internalType": "uint256",
          "name": "",
          "type": "uint256"
        }
      ],
      "stateMutability": "view",
      "type": "function"
    },
    {
      "inputs": [],
      "name": "nextToMature",
      "outputs": [
        {
          "internalType": "uint8",
          "name": "",
          "type": "uint8"
        }
      ],
      "stateMutability": "view",
      "type": "function"
    },
    {
      "inputs": [],
      "name": "poolMaturity",
      "outputs": [
        {
          "internalType": "uint256",
          "name": "",
          "type": "uint256"
        }
      ],
      "stateMutability": "view",
      "type": "function"
    },
    {
      "inputs": [],
      "name": "tokenAddress",
      "outputs": [
        {
          "internalType": "address",
          "name": "",
          "type": "address"
        }
      ],
      "stateMutability": "view",
      "type": "function"
    },
    {
      "inputs": [],
      "name": "invest",
      "outputs": [],
      "stateMutability": "nonpayable",
      "type": "function"
    },
    {
      "inputs": [],
      "name": "payOut",
      "outputs": [],
      "stateMutability": "nonpayable",
      "type": "function"
    },
    {
      "inputs": [],
      "name": "getCurrentPool",
      "outputs": [
        {
          "internalType": "address",
          "name": "",
          "type": "address"
        }
      ],
      "stateMutability": "view",
      "type": "function"
    },
    {
      "inputs": [],
      "name": "getMaturity",
      "outputs": [
        {
          "internalType": "uint256",
          "name": "",
          "type": "uint256"
        }
      ],
      "stateMutability": "view",
      "type": "function"
    },
    {
      "inputs": [
        {
          "internalType": "uint8",
          "name": "poolIndex",
          "type": "uint8"
        }
      ],
      "name": "getPoolByIndex",
      "outputs": [
        {
          "internalType": "address",
          "name": "",
          "type": "address"
        }
      ],
      "stateMutability": "view",
      "type": "function"
    }
  ],
  "bytecode": "0x60806040526001600455670de0b6b3a7640000600102600d553480156200002557600080fd5b50604051620036853803806200368583398181016040526101208110156200004c57600080fd5b8101908080519060200190929190805190602001909291908051906020019092919080519060200190929190805190602001909291908051906020019092919080519060200190929190805190602001909291908051906020019092919050505088600681905550876007819055508660088190555085600a60006101000a81548173ffffffffffffffffffffffffffffffffffffffff021916908373ffffffffffffffffffffffffffffffffffffffff16021790555033600960006101000a81548173ffffffffffffffffffffffffffffffffffffffff021916908373ffffffffffffffffffffffffffffffffffffffff160217905550426010819055504260118190555082600f60006101000a81548173ffffffffffffffffffffffffffffffffffffffff021916908373ffffffffffffffffffffffffffffffffffffffff16021790555081600e60006101000a81548173ffffffffffffffffffffffffffffffffffffffff021916908373ffffffffffffffffffffffffffffffffffffffff16021790555060008090505b600160065460075481620001ea57fe5b04018160ff161015620002df57600960009054906101000a900473ffffffffffffffffffffffffffffffffffffffff1660405162000228906200107b565b808273ffffffffffffffffffffffffffffffffffffffff1673ffffffffffffffffffffffffffffffffffffffff168152602001915050604051809103906000f0801580156200027b573d6000803e3d6000fd5b50601260008360ff1660ff16815260200190815260200160002060006101000a81548173ffffffffffffffffffffffffffffffffffffffff021916908373ffffffffffffffffffffffffffffffffffffffff160217905550806001019050620001da565b5084600b60006101000a81548173ffffffffffffffffffffffffffffffffffffffff021916908373ffffffffffffffffffffffffffffffffffffffff16021790555083600c81905550600073ffffffffffffffffffffffffffffffffffffffff168173ffffffffffffffffffffffffffffffffffffffff16141562000374576200036e6200051d60201b60201c565b62000386565b6200038581620005c760201b60201c565b5b6200039062001089565b620003ac600c543063e8b5e51f60e01b6200060b60201b60201c565b9050620004056040518060400160405280600581526020017f756e74696c00000000000000000000000000000000000000000000000000000081525060065460115401836200064760201b62000c2c179092919060201c565b6200043c600b60009054906101000a900473ffffffffffffffffffffffffffffffffffffffff1682600d546200068860201b60201c565b506200044762001089565b62000463600c543063c205240360e01b6200060b60201b60201c565b9050620004d46040518060400160405280600581526020017f756e74696c000000000000000000000000000000000000000000000000000000815250600754600654601360019054906101000a900460ff1660ff16026011540101836200064760201b62000c2c179092919060201c565b6200050b600b60009054906101000a900473ffffffffffffffffffffffffffffffffffffffff1682600d546200068860201b60201c565b50505050505050505050505062001112565b620005c573c89bd4e1632d3a43cb03aaad5262cbe4038bc57173ffffffffffffffffffffffffffffffffffffffff166338cc48316040518163ffffffff1660e01b815260040160206040518083038186803b1580156200057c57600080fd5b505afa15801562000591573d6000803e3d6000fd5b505050506040513d6020811015620005a857600080fd5b8101908080519060200190929190505050620005c760201b60201c565b565b80600260006101000a81548173ffffffffffffffffffffffffffffffffffffffff021916908373ffffffffffffffffffffffffffffffffffffffff16021790555050565b6200061562001089565b6200061f62001089565b6200063d858585846200095060201b62000f1717909392919060201c565b9150509392505050565b6200066582846080015162000a0f60201b62000fc71790919060201c565b6200068381846080015162000a4360201b62000fec1790919060201c565b505050565b600030600454604051602001808373ffffffffffffffffffffffffffffffffffffffff1673ffffffffffffffffffffffffffffffffffffffff1660601b815260140182815260200192505050604051602081830303815290604052805190602001209050600454836060018181525050836005600083815260200190815260200160002060006101000a81548173ffffffffffffffffffffffffffffffffffffffff021916908373ffffffffffffffffffffffffffffffffffffffff160217905550807fb5e6e01e79f91267dc17b4e6314d5d4d03593d2ceee0fbb452b750bd70ea5af960405160405180910390a2600260009054906101000a900473ffffffffffffffffffffffffffffffffffffffff1673ffffffffffffffffffffffffffffffffffffffff16634000aea08584620007c88762000a5b60201b60201c565b6040518463ffffffff1660e01b8152600401808473ffffffffffffffffffffffffffffffffffffffff1673ffffffffffffffffffffffffffffffffffffffff16815260200183815260200180602001828103825283818151815260200191508051906020019080838360005b838110156200085157808201518184015260208101905062000834565b50505050905090810190601f1680156200087f5780820380516001836020036101000a031916815260200191505b50945050505050602060405180830381600087803b158015620008a157600080fd5b505af1158015620008b6573d6000803e3d6000fd5b505050506040513d6020811015620008cd57600080fd5b810190808051906020019092919050505062000935576040517f08c379a0000000000000000000000000000000000000000000000000000000008152600401808060200182810382526023815260200180620036626023913960400191505060405180910390fd5b60016004600082825401925050819055508090509392505050565b6200095a62001089565b62000977856080015161010062000c2a60201b620011c81760201c565b508385600001818152505082856020019073ffffffffffffffffffffffffffffffffffffffff16908173ffffffffffffffffffffffffffffffffffffffff16815250508185604001907bffffffffffffffffffffffffffffffffffffffffffffffffffffffff191690817bffffffffffffffffffffffffffffffffffffffffffffffffffffffff191681525050849050949350505050565b62000a24826003835162000c8360201b60201c565b62000a3e818362000e1060201b620013611790919060201c565b505050565b62000a578260008362000c8360201b60201c565b5050565b6060634042994660e01b60008084600001518560200151866040015187606001516001896080015160000151604051602401808973ffffffffffffffffffffffffffffffffffffffff1673ffffffffffffffffffffffffffffffffffffffff1681526020018881526020018781526020018673ffffffffffffffffffffffffffffffffffffffff1673ffffffffffffffffffffffffffffffffffffffff168152602001857bffffffffffffffffffffffffffffffffffffffffffffffffffffffff19167bffffffffffffffffffffffffffffffffffffffffffffffffffffffff1916815260200184815260200183815260200180602001828103825283818151815260200191508051906020019080838360005b8381101562000b8c57808201518184015260208101905062000b6f565b50505050905090810190601f16801562000bba5780820380516001836020036101000a031916815260200191505b509950505050505050505050604051602081830303815290604052907bffffffffffffffffffffffffffffffffffffffffffffffffffffffff19166020820180517bffffffffffffffffffffffffffffffffffffffffffffffffffffffff83818316178352505050509050919050565b62000c34620010f8565b60006020838162000c4157fe5b061462000c5c576020828162000c5357fe5b06602003820191505b81836020018181525050604051808452600081528281016020016040525082905092915050565b6017811162000cb95762000cb28160058460ff16901b60ff16178462000e3c60201b620013831790919060201c565b5062000e0b565b60ff811162000d0b5762000ce6601860058460ff16901b178462000e3c60201b620013831790919060201c565b5062000d048160018562000e6660201b620013a3179092919060201c565b5062000e0a565b61ffff811162000d5e5762000d39601960058460ff16901b178462000e3c60201b620013831790919060201c565b5062000d578160028562000e6660201b620013a3179092919060201c565b5062000e09565b63ffffffff811162000db35762000d8e601a60058460ff16901b178462000e3c60201b620013831790919060201c565b5062000dac8160048562000e6660201b620013a3179092919060201c565b5062000e08565b67ffffffffffffffff811162000e075762000de7601b60058460ff16901b178462000e3c60201b620013831790919060201c565b5062000e058160088562000e6660201b620013a3179092919060201c565b505b5b5b5b5b505050565b62000e1a620010f8565b62000e348384600001515184855162000e9260201b60201c565b905092915050565b62000e46620010f8565b62000e5e838460000151518462000f6260201b60201c565b905092915050565b62000e70620010f8565b62000e8984856000015151858562000fbc60201b60201c565b90509392505050565b62000e9c620010f8565b825182111562000eab57600080fd5b8460200151828501111562000ee75762000ee685600262000ed988602001518887016200102960201b60201c565b026200104760201b60201c565b5b60008086518051876020830101935080888701111562000f075787860182525b60208701925050505b6020841062000f35578051825260208201915060208101905060208403935062000f10565b60006001856020036101000a03905080198251168184511681811785525050879350505050949350505050565b62000f6c620010f8565b8360200151831062000f925762000f918460028660200151026200104760201b60201c565b5b835180516020858301018481538186141562000faf576001820183525b5050508390509392505050565b62000fc6620010f8565b8460200151848301111562000fed5762000fec856002868501026200104760201b60201c565b5b60006001836101000a03905085518386820101858319825116178152815185880111156200101b5784870182525b505085915050949350505050565b6000818311156200103d5782905062001041565b8190505b92915050565b60608260000151905062001062838362000c2a60201b60201c565b5062001075838262000e1060201b60201c565b50505050565b610ef3806200276f83390190565b6040518060a0016040528060008019168152602001600073ffffffffffffffffffffffffffffffffffffffff16815260200160007bffffffffffffffffffffffffffffffffffffffffffffffffffffffff1916815260200160008152602001620010f2620010f8565b81525090565b604051806040016040528060608152602001600081525090565b61164d80620011226000396000f3fe608060405234801561001057600080fd5b50600436106101215760003560e01c80639e740822116100ad578063e8b5e51f11610071578063e8b5e51f14610393578063ef06e72c1461039d578063efbc17b4146103e7578063f851a4401461040b578063fec732c01461045557610121565b80639e740822146102df578063c2052403146102fd578063e16695b514610307578063e41a055a14610325578063e4993f691461036f57610121565b80638d8d770a116100f45780638d8d770a1461021d5780638e42a4321461023b57806394ef45cb1461025957806396055b5a146102775780639d76ea581461029557610121565b80630b687675146101265780631a595f6514610144578063517587331461018e5780635f706e9a146101ac575b600080fd5b61012e61049f565b6040518082815260200191505060405180910390f35b61014c6104a5565b604051808273ffffffffffffffffffffffffffffffffffffffff1673ffffffffffffffffffffffffffffffffffffffff16815260200191505060405180910390f35b6101966104f5565b6040518082815260200191505060405180910390f35b6101db600480360360208110156101c257600080fd5b81019080803560ff1690602001909291905050506104fb565b604051808273ffffffffffffffffffffffffffffffffffffffff1673ffffffffffffffffffffffffffffffffffffffff16815260200191505060405180910390f35b61022561053e565b6040518082815260200191505060405180910390f35b610243610544565b6040518082815260200191505060405180910390f35b61026161054a565b6040518082815260200191505060405180910390f35b61027f610550565b6040518082815260200191505060405180910390f35b61029d610556565b604051808273ffffffffffffffffffffffffffffffffffffffff1673ffffffffffffffffffffffffffffffffffffffff16815260200191505060405180910390f35b6102e761057c565b6040518082815260200191505060405180910390f35b610305610582565b005b61030f6107a1565b6040518082815260200191505060405180910390f35b61032d6107c7565b604051808273ffffffffffffffffffffffffffffffffffffffff1673ffffffffffffffffffffffffffffffffffffffff16815260200191505060405180910390f35b6103776107ed565b604051808260ff1660ff16815260200191505060405180910390f35b61039b610800565b005b6103a5610b76565b604051808273ffffffffffffffffffffffffffffffffffffffff1673ffffffffffffffffffffffffffffffffffffffff16815260200191505060405180910390f35b6103ef610b9c565b604051808260ff1660ff16815260200191505060405180910390f35b610413610baf565b604051808273ffffffffffffffffffffffffffffffffffffffff1673ffffffffffffffffffffffffffffffffffffffff16815260200191505060405180910390f35b61045d610bd5565b604051808273ffffffffffffffffffffffffffffffffffffffff1673ffffffffffffffffffffffffffffffffffffffff16815260200191505060405180910390f35b600d5481565b600060126000601360019054906101000a900460ff1660ff1660ff16815260200190815260200160002060009054906101000a900473ffffffffffffffffffffffffffffffffffffffff16905090565b600c5481565b6000601260008360ff1660ff16815260200190815260200160002060009054906101000a900473ffffffffffffffffffffffffffffffffffffffff169050919050565b60075481565b60115481565b60065481565b60105481565b600a60009054906101000a900473ffffffffffffffffffffffffffffffffffffffff1681565b60085481565b600654601360009054906101000a900460ff1660ff166001600654600754816105a757fe5b0401030260075460105401014210156105bf57600080fd5b60126000601360009054906101000a900460ff1660ff1660ff16815260200190815260200160002060009054906101000a900473ffffffffffffffffffffffffffffffffffffffff1673ffffffffffffffffffffffffffffffffffffffff1663056d380c600a60009054906101000a900473ffffffffffffffffffffffffffffffffffffffff16600f60009054906101000a900473ffffffffffffffffffffffffffffffffffffffff166040518363ffffffff1660e01b8152600401808373ffffffffffffffffffffffffffffffffffffffff1673ffffffffffffffffffffffffffffffffffffffff1681526020018273ffffffffffffffffffffffffffffffffffffffff1673ffffffffffffffffffffffffffffffffffffffff16815260200192505050600060405180830381600087803b1580156106fe57600080fd5b505af1158015610712573d6000803e3d6000fd5b5050505060016006546007548161072557fe5b04016001601360009054906101000a900460ff160160ff168161074457fe5b06601360006101000a81548160ff021916908360ff1602179055506000601360009054906101000a900460ff1660ff16141561079f5760065460016006546007548161078c57fe5b0401026010600082825401925050819055505b565b6000600654601360009054906101000a900460ff1660ff16026007546010540101905090565b600e60009054906101000a900473ffffffffffffffffffffffffffffffffffffffff1681565b601360009054906101000a900460ff1681565b601360019054906101000a900460ff1660ff16600654026011540142101561082757600080fd5b60126000601360019054906101000a900460ff1660ff1660ff16815260200190815260200160002060009054906101000a900473ffffffffffffffffffffffffffffffffffffffff1673ffffffffffffffffffffffffffffffffffffffff1663ff8a4efe600a60009054906101000a900473ffffffffffffffffffffffffffffffffffffffff16600e60009054906101000a900473ffffffffffffffffffffffffffffffffffffffff166040518363ffffffff1660e01b8152600401808373ffffffffffffffffffffffffffffffffffffffff1673ffffffffffffffffffffffffffffffffffffffff1681526020018273ffffffffffffffffffffffffffffffffffffffff1673ffffffffffffffffffffffffffffffffffffffff16815260200192505050600060405180830381600087803b15801561096657600080fd5b505af115801561097a573d6000803e3d6000fd5b5050505060016006546007548161098d57fe5b04016001601360019054906101000a900460ff160160ff16816109ac57fe5b06601360016101000a81548160ff021916908360ff1602179055506000601360019054906101000a900460ff1660ff161415610a07576006546001600654600754816109f457fe5b0401026011600082825401925050819055505b610a0f61156d565b610a23600c543063e8b5e51f60e01b610bfb565b9050610a8c6040518060400160405280600581526020017f756e74696c0000000000000000000000000000000000000000000000000000008152506006546001601360019054906101000a900460ff160160ff16026011540183610c2c9092919063ffffffff16565b610abb600b60009054906101000a900473ffffffffffffffffffffffffffffffffffffffff1682600d54610c5f565b50610ac461156d565b610ad8600c543063c205240360e01b610bfb565b9050610b426040518060400160405280600581526020017f756e74696c000000000000000000000000000000000000000000000000000000815250600754600654601360019054906101000a900460ff1660ff1602601154010183610c2c9092919063ffffffff16565b610b71600b60009054906101000a900473ffffffffffffffffffffffffffffffffffffffff1682600d54610c5f565b505050565b600b60009054906101000a900473ffffffffffffffffffffffffffffffffffffffff1681565b601360019054906101000a900460ff1681565b600960009054906101000a900473ffffffffffffffffffffffffffffffffffffffff1681565b600f60009054906101000a900473ffffffffffffffffffffffffffffffffffffffff1681565b610c0361156d565b610c0b61156d565b610c2285858584610f17909392919063ffffffff16565b9150509392505050565b610c43828460800151610fc790919063ffffffff16565b610c5a818460800151610fec90919063ffffffff16565b505050565b600030600454604051602001808373ffffffffffffffffffffffffffffffffffffffff1673ffffffffffffffffffffffffffffffffffffffff1660601b815260140182815260200192505050604051602081830303815290604052805190602001209050600454836060018181525050836005600083815260200190815260200160002060006101000a81548173ffffffffffffffffffffffffffffffffffffffff021916908373ffffffffffffffffffffffffffffffffffffffff160217905550807fb5e6e01e79f91267dc17b4e6314d5d4d03593d2ceee0fbb452b750bd70ea5af960405160405180910390a2600260009054906101000a900473ffffffffffffffffffffffffffffffffffffffff1673ffffffffffffffffffffffffffffffffffffffff16634000aea08584610d9787610ffc565b6040518463ffffffff1660e01b8152600401808473ffffffffffffffffffffffffffffffffffffffff1673ffffffffffffffffffffffffffffffffffffffff16815260200183815260200180602001828103825283818151815260200191508051906020019080838360005b83811015610e1e578082015181840152602081019050610e03565b50505050905090810190601f168015610e4b5780820380516001836020036101000a031916815260200191505b50945050505050602060405180830381600087803b158015610e6c57600080fd5b505af1158015610e80573d6000803e3d6000fd5b505050506040513d6020811015610e9657600080fd5b8101908080519060200190929190505050610efc576040517f08c379a00000000000000000000000000000000000000000000000000000000081526004018080602001828103825260238152602001806115f56023913960400191505060405180910390fd5b60016004600082825401925050819055508090509392505050565b610f1f61156d565b610f2f85608001516101006111c8565b508385600001818152505082856020019073ffffffffffffffffffffffffffffffffffffffff16908173ffffffffffffffffffffffffffffffffffffffff16815250508185604001907bffffffffffffffffffffffffffffffffffffffffffffffffffffffff191690817bffffffffffffffffffffffffffffffffffffffffffffffffffffffff191681525050849050949350505050565b610fd4826003835161121c565b610fe7818361136190919063ffffffff16565b505050565b610ff88260008361121c565b5050565b6060634042994660e01b60008084600001518560200151866040015187606001516001896080015160000151604051602401808973ffffffffffffffffffffffffffffffffffffffff1673ffffffffffffffffffffffffffffffffffffffff1681526020018881526020018781526020018673ffffffffffffffffffffffffffffffffffffffff1673ffffffffffffffffffffffffffffffffffffffff168152602001857bffffffffffffffffffffffffffffffffffffffffffffffffffffffff19167bffffffffffffffffffffffffffffffffffffffffffffffffffffffff1916815260200184815260200183815260200180602001828103825283818151815260200191508051906020019080838360005b8381101561112b578082015181840152602081019050611110565b50505050905090810190601f1680156111585780820380516001836020036101000a031916815260200191505b509950505050505050505050604051602081830303815290604052907bffffffffffffffffffffffffffffffffffffffffffffffffffffffff19166020820180517bffffffffffffffffffffffffffffffffffffffffffffffffffffffff83818316178352505050509050919050565b6111d06115da565b6000602083816111dc57fe5b06146111f557602082816111ec57fe5b06602003820191505b81836020018181525050604051808452600081528281016020016040525082905092915050565b60178111611249576112438160058460ff16901b60ff16178461138390919063ffffffff16565b5061135c565b60ff811161128b5761126e601860058460ff16901b178461138390919063ffffffff16565b50611285816001856113a39092919063ffffffff16565b5061135b565b61ffff81116112ce576112b1601960058460ff16901b178461138390919063ffffffff16565b506112c8816002856113a39092919063ffffffff16565b5061135a565b63ffffffff8111611313576112f6601a60058460ff16901b178461138390919063ffffffff16565b5061130d816004856113a39092919063ffffffff16565b50611359565b67ffffffffffffffff81116113585761133f601b60058460ff16901b178461138390919063ffffffff16565b50611356816008856113a39092919063ffffffff16565b505b5b5b5b5b505050565b6113696115da565b61137b838460000151518485516113c5565b905092915050565b61138b6115da565b61139b838460000151518461147e565b905092915050565b6113ab6115da565b6113bc8485600001515185856114cc565b90509392505050565b6113cd6115da565b82518211156113db57600080fd5b84602001518285011115611406576114058560026113ff886020015188870161152d565b02611549565b5b6000808651805187602083010193508088870111156114255787860182525b60208701925050505b60208410611451578051825260208201915060208101905060208403935061142e565b60006001856020036101000a03905080198251168184511681811785525050879350505050949350505050565b6114866115da565b836020015183106114a3576114a2846002866020015102611549565b5b83518051602085830101848153818614156114bf576001820183525b5050508390509392505050565b6114d46115da565b846020015184830111156114f2576114f185600286850102611549565b5b60006001836101000a039050855183868201018583198251161781528151858801111561151f5784870182525b505085915050949350505050565b60008183111561153f57829050611543565b8190505b92915050565b60608260000151905061155c83836111c8565b506115678382611361565b50505050565b6040518060a0016040528060008019168152602001600073ffffffffffffffffffffffffffffffffffffffff16815260200160007bffffffffffffffffffffffffffffffffffffffffffffffffffffffff19168152602001600081526020016115d46115da565b81525090565b60405180604001604052806060815260200160008152509056fe756e61626c6520746f207472616e73666572416e6443616c6c20746f206f7261636c65a26469706673582212207bb3955bbad65877e3d3f17a91d113c5f30853f0ee8aac3d3fef67b25766abfe64736f6c634300060700336080604052600060045534801561001557600080fd5b50604051610ef3380380610ef38339818101604052602081101561003857600080fd5b8101908080519060200190929190505050806000806101000a81548173ffffffffffffffffffffffffffffffffffffffff021916908373ffffffffffffffffffffffffffffffffffffffff16021790555033600160006101000a81548173ffffffffffffffffffffffffffffffffffffffff021916908373ffffffffffffffffffffffffffffffffffffffff16021790555050610e19806100da6000396000f3fe608060405234801561001057600080fd5b50600436106100625760003560e01c8063056d380c146100675780630a91bc1d146100cb5780636e9960c31461010f578063cde0d67214610159578063f851a44014610177578063ff8a4efe146101c1575b600080fd5b6100c96004803603604081101561007d57600080fd5b81019080803573ffffffffffffffffffffffffffffffffffffffff169060200190929190803573ffffffffffffffffffffffffffffffffffffffff169060200190929190505050610225565b005b61010d600480360360208110156100e157600080fd5b81019080803573ffffffffffffffffffffffffffffffffffffffff1690602001909291905050506107f0565b005b610117610948565b604051808273ffffffffffffffffffffffffffffffffffffffff1673ffffffffffffffffffffffffffffffffffffffff16815260200191505060405180910390f35b610161610971565b6040518082815260200191505060405180910390f35b61017f610977565b604051808273ffffffffffffffffffffffffffffffffffffffff1673ffffffffffffffffffffffffffffffffffffffff16815260200191505060405180910390f35b610223600480360360408110156101d757600080fd5b81019080803573ffffffffffffffffffffffffffffffffffffffff169060200190929190803573ffffffffffffffffffffffffffffffffffffffff16906020019092919050505061099c565b005b600160009054906101000a900473ffffffffffffffffffffffffffffffffffffffff1673ffffffffffffffffffffffffffffffffffffffff163373ffffffffffffffffffffffffffffffffffffffff161461027f57600080fd5b60008190508073ffffffffffffffffffffffffffffffffffffffff1663db006a758273ffffffffffffffffffffffffffffffffffffffff166370a08231306040518263ffffffff1660e01b8152600401808273ffffffffffffffffffffffffffffffffffffffff1673ffffffffffffffffffffffffffffffffffffffff16815260200191505060206040518083038186803b15801561031d57600080fd5b505afa158015610331573d6000803e3d6000fd5b505050506040513d602081101561034757600080fd5b81019080805190602001909291905050506040518263ffffffff1660e01b815260040180828152602001915050600060405180830381600087803b15801561038e57600080fd5b505af11580156103a2573d6000803e3d6000fd5b50505050600083905060006004541461060d5760006004548273ffffffffffffffffffffffffffffffffffffffff166370a08231306040518263ffffffff1660e01b8152600401808273ffffffffffffffffffffffffffffffffffffffff1673ffffffffffffffffffffffffffffffffffffffff16815260200191505060206040518083038186803b15801561043757600080fd5b505afa15801561044b573d6000803e3d6000fd5b505050506040513d602081101561046157600080fd5b81019080805190602001909291905050508161047957fe5b0490506000600360009054906101000a900473ffffffffffffffffffffffffffffffffffffffff1690505b600073ffffffffffffffffffffffffffffffffffffffff168173ffffffffffffffffffffffffffffffffffffffff1614610602578273ffffffffffffffffffffffffffffffffffffffff1663a9059cbb82846040518363ffffffff1660e01b8152600401808373ffffffffffffffffffffffffffffffffffffffff1673ffffffffffffffffffffffffffffffffffffffff16815260200182815260200192505050602060405180830381600087803b15801561055f57600080fd5b505af1158015610573573d6000803e3d6000fd5b505050506040513d602081101561058957600080fd5b810190808051906020019092919050505050600260008273ffffffffffffffffffffffffffffffffffffffff1673ffffffffffffffffffffffffffffffffffffffff16815260200190815260200160002060009054906101000a900473ffffffffffffffffffffffffffffffffffffffff1690506104a4565b600060048190555050505b8073ffffffffffffffffffffffffffffffffffffffff1663a9059cbb6000809054906101000a900473ffffffffffffffffffffffffffffffffffffffff168373ffffffffffffffffffffffffffffffffffffffff166370a08231306040518263ffffffff1660e01b8152600401808273ffffffffffffffffffffffffffffffffffffffff1673ffffffffffffffffffffffffffffffffffffffff16815260200191505060206040518083038186803b1580156106c857600080fd5b505afa1580156106dc573d6000803e3d6000fd5b505050506040513d60208110156106f257600080fd5b81019080805190602001909291905050506040518363ffffffff1660e01b8152600401808373ffffffffffffffffffffffffffffffffffffffff1673ffffffffffffffffffffffffffffffffffffffff16815260200182815260200192505050602060405180830381600087803b15801561076c57600080fd5b505af1158015610780573d6000803e3d6000fd5b505050506040513d602081101561079657600080fd5b8101908080519060200190929190505050506000600360006101000a81548173ffffffffffffffffffffffffffffffffffffffff021916908373ffffffffffffffffffffffffffffffffffffffff16021790555050505050565b6000809054906101000a900473ffffffffffffffffffffffffffffffffffffffff1673ffffffffffffffffffffffffffffffffffffffff163373ffffffffffffffffffffffffffffffffffffffff161461084957600080fd5b6000600454146108f457600360009054906101000a900473ffffffffffffffffffffffffffffffffffffffff16600260008373ffffffffffffffffffffffffffffffffffffffff1673ffffffffffffffffffffffffffffffffffffffff16815260200190815260200160002060006101000a81548173ffffffffffffffffffffffffffffffffffffffff021916908373ffffffffffffffffffffffffffffffffffffffff1602179055505b80600360006101000a81548173ffffffffffffffffffffffffffffffffffffffff021916908373ffffffffffffffffffffffffffffffffffffffff1602179055506004600081546001019190508190555050565b60008060009054906101000a900473ffffffffffffffffffffffffffffffffffffffff16905090565b60045481565b6000809054906101000a900473ffffffffffffffffffffffffffffffffffffffff1681565b600160009054906101000a900473ffffffffffffffffffffffffffffffffffffffff1673ffffffffffffffffffffffffffffffffffffffff163373ffffffffffffffffffffffffffffffffffffffff16146109f657600080fd5b600082905060008290508173ffffffffffffffffffffffffffffffffffffffff1663095ea7b38273ffffffffffffffffffffffffffffffffffffffff1663ed6ff7606040518163ffffffff1660e01b815260040160206040518083038186803b158015610a6257600080fd5b505afa158015610a76573d6000803e3d6000fd5b505050506040513d6020811015610a8c57600080fd5b81019080805190602001909291905050508473ffffffffffffffffffffffffffffffffffffffff166370a08231306040518263ffffffff1660e01b8152600401808273ffffffffffffffffffffffffffffffffffffffff1673ffffffffffffffffffffffffffffffffffffffff16815260200191505060206040518083038186803b158015610b1a57600080fd5b505afa158015610b2e573d6000803e3d6000fd5b505050506040513d6020811015610b4457600080fd5b81019080805190602001909291905050506040518363ffffffff1660e01b8152600401808373ffffffffffffffffffffffffffffffffffffffff1673ffffffffffffffffffffffffffffffffffffffff16815260200182815260200192505050602060405180830381600087803b158015610bbe57600080fd5b505af1158015610bd2573d6000803e3d6000fd5b505050506040513d6020811015610be857600080fd5b8101908080519060200190929190505050508073ffffffffffffffffffffffffffffffffffffffff16630261bf8b6040518163ffffffff1660e01b815260040160206040518083038186803b158015610c4057600080fd5b505afa158015610c54573d6000803e3d6000fd5b505050506040513d6020811015610c6a57600080fd5b810190808051906020019092919050505073ffffffffffffffffffffffffffffffffffffffff1663d2d0e066858473ffffffffffffffffffffffffffffffffffffffff166370a08231306040518263ffffffff1660e01b8152600401808273ffffffffffffffffffffffffffffffffffffffff1673ffffffffffffffffffffffffffffffffffffffff16815260200191505060206040518083038186803b158015610d1457600080fd5b505afa158015610d28573d6000803e3d6000fd5b505050506040513d6020811015610d3e57600080fd5b810190808051906020019092919050505060006040518463ffffffff1660e01b8152600401808473ffffffffffffffffffffffffffffffffffffffff1673ffffffffffffffffffffffffffffffffffffffff1681526020018381526020018261ffff1681526020019350505050600060405180830381600087803b158015610dc557600080fd5b505af1158015610dd9573d6000803e3d6000fd5b505050505050505056fea264697066735822122062963c62bd82f2f2960b9b951811aab10b28b4cfc372db861ce5e21085858d7264736f6c63430006070033756e61626c6520746f207472616e73666572416e6443616c6c20746f206f7261636c65",
  "immutableReferences": {},
  "source": "pragma solidity >=0.4.21 < 0.7.0;\n\nimport \"./SinglePool.sol\";\n// import ChainlinkClient.sol\nimport \"../../chainlink/evm-contracts/src/v0.6/ChainlinkClient.sol\";\n\n// from aave:\n// import LendingPoolAddressesProvider\n// import ../../aave-protocol/contracts/lendingpool/LendingPoolAddressesProvider\n// import LendingPool\n\ncontract Course is ChainlinkClient {\n\t//configuration stuff\n\tuint public buyInTime;\n\tuint public poolMaturity;\n\tuint public buyInPrice;\n\taddress public admin;\n\taddress public tokenAddress;\n\n\t//chainlink stuff\n\taddress public chainlinkOracle;\n\tbytes32 public chainlinkJobId;\n\tuint public chainlinkPayment = 1 * LINK;\n\n\t//aave stuff\n\taddress public aaveProviderAddress;\n\taddress public aTokenAddr;\n\n\t// true state variables\n\t//uint public startTime;\n\tuint public maturityCycleStart;\n\tuint public buyInStartTime;\n\t// the number of SinglePool s in allPools is known at construction time to be:\n\t// uint(poolMaturity/buyInTime) + 1\n\tmapping (uint8 => SinglePool) private allPools;\n\n\t//nextToMature stores the index of the next SinglePool to mature\n\tuint8 public nextToMature; \n\tuint8 public currentBuyInPool;\n\tmodifier adminOnly {\n\t\trequire (msg.sender == admin);\n\t\t_;\n\t}\n\n\n\t// TODO: modifier timeIsRight;\n\t// see below.\n\tmodifier poolIsMature {\n\t\trequire(now >= maturityCycleStart + poolMaturity + (uint(poolMaturity/buyInTime)+1-nextToMature)*buyInTime);\n\t\t_;\n\t}\n\n\tmodifier buyInOver {\n\t\trequire(now >= buyInStartTime + buyInTime*currentBuyInPool); \n\t\t_;\n\t}\n\n\n\tconstructor(uint _buyInTime, uint _poolMaturity, uint _buyInPrice, \naddress _tokenAddress, address _oracle, bytes32 _jobId, address _aaveToken, address _aaveProvider, address _linkAddr) public {\n\t\tbuyInTime = _buyInTime;\n\t\tpoolMaturity = _poolMaturity;\n\t\tbuyInPrice = _buyInPrice;\n\t\ttokenAddress = _tokenAddress;\n\t\tadmin = msg.sender;\n\t\t// startTime = block.number;\n\t\tmaturityCycleStart = now;\n\t\tbuyInStartTime = now;\n\t\taTokenAddr = _aaveToken;\n\t\taaveProviderAddress = _aaveProvider;\n\t\tfor (uint8 i=0; i < uint(poolMaturity/buyInTime) + 1; ++i) {\n\t\t\tallPools[i] = new SinglePool(admin);\n\t\t}\n\t\tchainlinkOracle = _oracle;\n\t\tchainlinkJobId = _jobId;\n\t\tif (_linkAddr == address(0)) {\n\t\t\tsetPublicChainlinkToken();\n\t\t} else {\n\t\t\tsetChainlinkToken(_linkAddr);\n\t\t}\n\t\tChainlink.Request memory investReq = buildChainlinkRequest(chainlinkJobId, address(this), this.invest.selector);\n\t\tinvestReq.addUint(\"until\", buyInStartTime + buyInTime);\n\t\tsendChainlinkRequestTo(chainlinkOracle, investReq, chainlinkPayment);\n\n\t\tChainlink.Request memory payoutReq = buildChainlinkRequest(chainlinkJobId, address(this), this.payOut.selector);\n\t\tpayoutReq.addUint(\"until\", buyInStartTime + currentBuyInPool * buyInTime + poolMaturity);\n\t\tsendChainlinkRequestTo(chainlinkOracle, payoutReq, chainlinkPayment);\n\t}\n\n\tfunction invest() public buyInOver {\n\t\tallPools[currentBuyInPool].invest(tokenAddress, aaveProviderAddress);\n\t\tcurrentBuyInPool = uint8((currentBuyInPool + 1) % uint(poolMaturity/buyInTime + 1));\n\t\tif (currentBuyInPool == 0)\n\t\t\tbuyInStartTime += (uint(poolMaturity/buyInTime) + 1) * buyInTime;\n\t\tChainlink.Request memory investReq = buildChainlinkRequest(chainlinkJobId, address(this), this.invest.selector);\n\t\tinvestReq.addUint(\"until\", buyInStartTime + (currentBuyInPool + 1) * buyInTime);\n\t\tsendChainlinkRequestTo(chainlinkOracle, investReq, chainlinkPayment);\n\t\tChainlink.Request memory payoutReq = buildChainlinkRequest(chainlinkJobId, address(this), this.payOut.selector);\n\t\tpayoutReq.addUint(\"until\", buyInStartTime + currentBuyInPool * buyInTime + poolMaturity);\n\t\tsendChainlinkRequestTo(chainlinkOracle, payoutReq, chainlinkPayment);\n\t}\n\n\tfunction payOut() public poolIsMature {\n\t\tallPools[nextToMature].reset(tokenAddress, aTokenAddr);\n\t\tnextToMature = uint8((nextToMature + 1) % uint(poolMaturity/buyInTime + 1));\n\t\tif (nextToMature == 0)\n\t\t\tmaturityCycleStart += (uint(poolMaturity/buyInTime) + 1) * buyInTime;\n\t}\n\n\tfunction getCurrentPool() public view returns (address) {\n\t\treturn address(allPools[ currentBuyInPool ]);\n\t}\n\n\t/*function getAllPools() public view returns (address[] memory) {\n\t\taddress[] memory poolAddresses;\n\t\tfor (uint8 i = 0; i < uint8(poolMaturity/buyInTime) + 1; ++i) {\n\t\t\tpoolAddresses[i] = address(allPools[i]);\n\t\t}\t\n\t\treturn poolAddresses;\n\t}*/\n\n\tfunction getMaturity() public view returns (uint) {\n\t\t// fix: change (uint(poolMaturity/buyInTime)+1-nextToMature) to: nextToMature\n\t\treturn maturityCycleStart + poolMaturity + nextToMature*buyInTime;\n\t}\n\n\tfunction getPoolByIndex(uint8 poolIndex) public view returns (address) {\n\t\treturn address(allPools[poolIndex]);\n\t}\n}\n",
  "sourcePath": "/home/daniel/truffle_projects/LearnAndEarn/contracts/Course.sol",
  "compiler": {
    "name": "solc",
    "version": "0.6.7+commit.b8d736ae.Emscripten.clang"
  },
  "schemaVersion": "3.1.0",
  "updatedAt": "2020-05-20T14:27:17.151Z",
  "devdoc": {
    "methods": {}
  },
  "userdoc": {
    "methods": {}
  }
}