{
  "contractName": "Course",
  "abi": [
    {
      "inputs": [
        {
          "internalType": "uint256",
          "name": "_buyInTime",
          "type": "uint256"
        },
        {
          "internalType": "uint256",
          "name": "_poolMaturity",
          "type": "uint256"
        },
        {
          "internalType": "uint256",
          "name": "_buyInPrice",
          "type": "uint256"
        },
        {
          "internalType": "address",
          "name": "_tokenAddress",
          "type": "address"
        }
      ],
      "stateMutability": "nonpayable",
      "type": "constructor"
    },
    {
      "inputs": [],
      "name": "admin",
      "outputs": [
        {
          "internalType": "address",
          "name": "",
          "type": "address"
        }
      ],
      "stateMutability": "view",
      "type": "function"
    },
    {
      "inputs": [
        {
          "internalType": "uint8",
          "name": "",
          "type": "uint8"
        }
      ],
      "name": "allPools",
      "outputs": [
        {
          "internalType": "contract SinglePool",
          "name": "",
          "type": "address"
        }
      ],
      "stateMutability": "view",
      "type": "function"
    },
    {
      "inputs": [],
      "name": "buyInPrice",
      "outputs": [
        {
          "internalType": "uint256",
          "name": "",
          "type": "uint256"
        }
      ],
      "stateMutability": "view",
      "type": "function"
    },
    {
      "inputs": [],
      "name": "buyInTime",
      "outputs": [
        {
          "internalType": "uint256",
          "name": "",
          "type": "uint256"
        }
      ],
      "stateMutability": "view",
      "type": "function"
    },
    {
      "inputs": [],
      "name": "poolMaturity",
      "outputs": [
        {
          "internalType": "uint256",
          "name": "",
          "type": "uint256"
        }
      ],
      "stateMutability": "view",
      "type": "function"
    },
    {
      "inputs": [],
      "name": "startTime",
      "outputs": [
        {
          "internalType": "uint256",
          "name": "",
          "type": "uint256"
        }
      ],
      "stateMutability": "view",
      "type": "function"
    },
    {
      "inputs": [],
      "name": "tokenAddress",
      "outputs": [
        {
          "internalType": "address",
          "name": "",
          "type": "address"
        }
      ],
      "stateMutability": "view",
      "type": "function"
    },
    {
      "inputs": [],
      "name": "payOut",
      "outputs": [],
      "stateMutability": "nonpayable",
      "type": "function"
    },
    {
      "inputs": [],
      "name": "getCurrentPool",
      "outputs": [
        {
          "internalType": "address",
          "name": "",
          "type": "address"
        }
      ],
      "stateMutability": "view",
      "type": "function"
    },
    {
      "inputs": [],
      "name": "getMaturity",
      "outputs": [
        {
          "internalType": "uint256",
          "name": "",
          "type": "uint256"
        }
      ],
      "stateMutability": "view",
      "type": "function"
    }
  ],
  "bytecode": "0x608060405234801561001057600080fd5b506040516110c93803806110c98339818101604052608081101561003357600080fd5b810190808051906020019092919080519060200190929190805190602001909291908051906020019092919050505083600181905550826002819055508160038190555080600560006101000a81548173ffffffffffffffffffffffffffffffffffffffff021916908373ffffffffffffffffffffffffffffffffffffffff16021790555033600460006101000a81548173ffffffffffffffffffffffffffffffffffffffff021916908373ffffffffffffffffffffffffffffffffffffffff1602179055504360008190555060008090505b600180546002548161011457fe5b04018160ff16101561020457600460009054906101000a900473ffffffffffffffffffffffffffffffffffffffff1660405161014f9061020e565b808273ffffffffffffffffffffffffffffffffffffffff1673ffffffffffffffffffffffffffffffffffffffff168152602001915050604051809103906000f0801580156101a1573d6000803e3d6000fd5b50600660008360ff1660ff16815260200190815260200160002060006101000a81548173ffffffffffffffffffffffffffffffffffffffff021916908373ffffffffffffffffffffffffffffffffffffffff160217905550806001019050610106565b505050505061021b565b6108f4806107d583390190565b6105ab8061022a6000396000f3fe608060405234801561001057600080fd5b506004361061009e5760003560e01c80639d76ea58116100665780639d76ea58146101b85780639e74082214610202578063c205240314610220578063e16695b51461022a578063f851a440146102485761009e565b80631a595f65146100a35780633ea75e18146100ed57806378e979251461015e5780638d8d770a1461017c57806394ef45cb1461019a575b600080fd5b6100ab610292565b604051808273ffffffffffffffffffffffffffffffffffffffff1673ffffffffffffffffffffffffffffffffffffffff16815260200191505060405180910390f35b61011c6004803603602081101561010357600080fd5b81019080803560ff1690602001909291905050506102e2565b604051808273ffffffffffffffffffffffffffffffffffffffff1673ffffffffffffffffffffffffffffffffffffffff16815260200191505060405180910390f35b610166610315565b6040518082815260200191505060405180910390f35b61018461031b565b6040518082815260200191505060405180910390f35b6101a2610321565b6040518082815260200191505060405180910390f35b6101c0610327565b604051808273ffffffffffffffffffffffffffffffffffffffff1673ffffffffffffffffffffffffffffffffffffffff16815260200191505060405180910390f35b61020a61034d565b6040518082815260200191505060405180910390f35b610228610353565b005b610232610518565b6040518082815260200191505060405180910390f35b61025061054f565b604051808273ffffffffffffffffffffffffffffffffffffffff1673ffffffffffffffffffffffffffffffffffffffff16815260200191505060405180910390f35b6000600660006001546000544303816102a757fe5b0460ff1660ff16815260200190815260200160002060009054906101000a900473ffffffffffffffffffffffffffffffffffffffff16905090565b60066020528060005260406000206000915054906101000a900473ffffffffffffffffffffffffffffffffffffffff1681565b60005481565b60025481565b60015481565b600560009054906101000a900473ffffffffffffffffffffffffffffffffffffffff1681565b60035481565b600154600760009054906101000a900460ff1660ff16600180546002548161037757fe5b04010302600254600054010143101561038f57600080fd5b60066000600760009054906101000a900460ff1660ff1660ff16815260200190815260200160002060009054906101000a900473ffffffffffffffffffffffffffffffffffffffff1673ffffffffffffffffffffffffffffffffffffffff16636b8ab97d600560009054906101000a900473ffffffffffffffffffffffffffffffffffffffff166040518263ffffffff1660e01b8152600401808273ffffffffffffffffffffffffffffffffffffffff1673ffffffffffffffffffffffffffffffffffffffff168152602001915050600060405180830381600087803b15801561047857600080fd5b505af115801561048c573d6000803e3d6000fd5b50505050600180546002548161049e57fe5b04016001600760009054906101000a900460ff160160ff16816104bd57fe5b06600760006101000a81548160ff021916908360ff1602179055506000600760009054906101000a900460ff1660ff16141561051657600154600180546002548161050457fe5b04010260008082825401925050819055505b565b6000600154600760009054906101000a900460ff1660ff16600180546002548161053e57fe5b040103026002546000540101905090565b600460009054906101000a900473ffffffffffffffffffffffffffffffffffffffff168156fea26469706673582212200661298a810e7a921bd5d856ad1e0a37ef96dc4ceac3380f5411d2fe9da7559164736f6c634300060700336080604052600060045534801561001557600080fd5b506040516108f43803806108f48339818101604052602081101561003857600080fd5b8101908080519060200190929190505050806000806101000a81548173ffffffffffffffffffffffffffffffffffffffff021916908373ffffffffffffffffffffffffffffffffffffffff16021790555033600160006101000a81548173ffffffffffffffffffffffffffffffffffffffff021916908373ffffffffffffffffffffffffffffffffffffffff1602179055505061081a806100da6000396000f3fe608060405234801561001057600080fd5b50600436106100575760003560e01c80630a91bc1d1461005c5780636b8ab97d146100a05780636e9960c3146100e4578063cde0d6721461012e578063f851a4401461014c575b600080fd5b61009e6004803603602081101561007257600080fd5b81019080803573ffffffffffffffffffffffffffffffffffffffff169060200190929190505050610196565b005b6100e2600480360360208110156100b657600080fd5b81019080803573ffffffffffffffffffffffffffffffffffffffff1690602001909291905050506102ee565b005b6100ec610790565b604051808273ffffffffffffffffffffffffffffffffffffffff1673ffffffffffffffffffffffffffffffffffffffff16815260200191505060405180910390f35b6101366107b9565b6040518082815260200191505060405180910390f35b6101546107bf565b604051808273ffffffffffffffffffffffffffffffffffffffff1673ffffffffffffffffffffffffffffffffffffffff16815260200191505060405180910390f35b6000809054906101000a900473ffffffffffffffffffffffffffffffffffffffff1673ffffffffffffffffffffffffffffffffffffffff163373ffffffffffffffffffffffffffffffffffffffff16146101ef57600080fd5b60006004541461029a57600360009054906101000a900473ffffffffffffffffffffffffffffffffffffffff16600260008373ffffffffffffffffffffffffffffffffffffffff1673ffffffffffffffffffffffffffffffffffffffff16815260200190815260200160002060006101000a81548173ffffffffffffffffffffffffffffffffffffffff021916908373ffffffffffffffffffffffffffffffffffffffff1602179055505b80600360006101000a81548173ffffffffffffffffffffffffffffffffffffffff021916908373ffffffffffffffffffffffffffffffffffffffff1602179055506004600081546001019190508190555050565b600160009054906101000a900473ffffffffffffffffffffffffffffffffffffffff1673ffffffffffffffffffffffffffffffffffffffff163373ffffffffffffffffffffffffffffffffffffffff161461034857600080fd5b60008190506000600454146105af5760006004548273ffffffffffffffffffffffffffffffffffffffff166370a08231306040518263ffffffff1660e01b8152600401808273ffffffffffffffffffffffffffffffffffffffff1673ffffffffffffffffffffffffffffffffffffffff16815260200191505060206040518083038186803b1580156103d957600080fd5b505afa1580156103ed573d6000803e3d6000fd5b505050506040513d602081101561040357600080fd5b81019080805190602001909291905050508161041b57fe5b0490506000600360009054906101000a900473ffffffffffffffffffffffffffffffffffffffff1690505b600073ffffffffffffffffffffffffffffffffffffffff168173ffffffffffffffffffffffffffffffffffffffff16146105a4578273ffffffffffffffffffffffffffffffffffffffff1663a9059cbb82846040518363ffffffff1660e01b8152600401808373ffffffffffffffffffffffffffffffffffffffff1673ffffffffffffffffffffffffffffffffffffffff16815260200182815260200192505050602060405180830381600087803b15801561050157600080fd5b505af1158015610515573d6000803e3d6000fd5b505050506040513d602081101561052b57600080fd5b810190808051906020019092919050505050600260008273ffffffffffffffffffffffffffffffffffffffff1673ffffffffffffffffffffffffffffffffffffffff16815260200190815260200160002060009054906101000a900473ffffffffffffffffffffffffffffffffffffffff169050610446565b600060048190555050505b8073ffffffffffffffffffffffffffffffffffffffff1663a9059cbb6000809054906101000a900473ffffffffffffffffffffffffffffffffffffffff168373ffffffffffffffffffffffffffffffffffffffff166370a08231306040518263ffffffff1660e01b8152600401808273ffffffffffffffffffffffffffffffffffffffff1673ffffffffffffffffffffffffffffffffffffffff16815260200191505060206040518083038186803b15801561066a57600080fd5b505afa15801561067e573d6000803e3d6000fd5b505050506040513d602081101561069457600080fd5b81019080805190602001909291905050506040518363ffffffff1660e01b8152600401808373ffffffffffffffffffffffffffffffffffffffff1673ffffffffffffffffffffffffffffffffffffffff16815260200182815260200192505050602060405180830381600087803b15801561070e57600080fd5b505af1158015610722573d6000803e3d6000fd5b505050506040513d602081101561073857600080fd5b8101908080519060200190929190505050506000600360006101000a81548173ffffffffffffffffffffffffffffffffffffffff021916908373ffffffffffffffffffffffffffffffffffffffff1602179055505050565b60008060009054906101000a900473ffffffffffffffffffffffffffffffffffffffff16905090565b60045481565b6000809054906101000a900473ffffffffffffffffffffffffffffffffffffffff168156fea2646970667358221220f3e80602e908148cd541d38e5cf1fd3efe3d8519600d2811300ce58204ef0a3064736f6c63430006070033",
  "immutableReferences": {},
  "source": "pragma solidity >=0.4.21 < 0.7.0;\n\nimport \"./SinglePool.sol\";\n\ncontract Course {\n\tuint public startTime;\n\tuint public buyInTime;\n\tuint public poolMaturity;\n\tuint public buyInPrice;\n\taddress public admin;\n\taddress public tokenAddress;\n\n\t// the number of SinglePool s in allPools is known at construction time to be:\n\t// uint(poolMaturity/buyInTime) + 1\n\tmapping (uint8 => SinglePool) public allPools;\n\n\t//nextToMature stores the index of the next SinglePool to mature\n\tuint8 nextToMature; \n\n\tmodifier adminOnly {\n\t\trequire (msg.sender == admin);\n\t\t_;\n\t}\n\t// TODO: modifier timeIsRight;\n\t// see below.\n\tmodifier poolIsMature {\n\t\trequire(block.number >= startTime + poolMaturity + (uint(poolMaturity/buyInTime)+1-nextToMature)*buyInTime);\n\t\t_;\n\t}\n\n\tconstructor(uint _buyInTime, uint _poolMaturity, uint _buyInPrice, address _tokenAddress) public {\n\t\tbuyInTime = _buyInTime;\n\t\tpoolMaturity = _poolMaturity;\n\t\tbuyInPrice = _buyInPrice;\n\t\ttokenAddress = _tokenAddress;\n\t\tadmin = msg.sender;\n\t\tstartTime = block.number;\n\t\tfor (uint8 i=0; i < uint(poolMaturity/buyInTime) + 1; ++i) {\n\t\t\tallPools[i] = new SinglePool(admin);\n\t\t}\n\t}\n\n\tfunction payOut() public poolIsMature {\n\t\tallPools[nextToMature].reset(tokenAddress);\n\t\tnextToMature = uint8((nextToMature + 1) % uint(poolMaturity/buyInTime + 1));\n\t\tif (nextToMature == 0)\n\t\t\tstartTime += (uint(poolMaturity/buyInTime) + 1) * buyInTime;\n\t}\n\n\tfunction getCurrentPool() public view returns (address) {\n\t\treturn address(allPools[ uint8((block.number - startTime)/buyInTime) ]);\n\t}\n\n\t/*function getAllPools() public view returns (address[] memory) {\n\t\taddress[] memory poolAddresses;\n\t\tfor (uint8 i = 0; i < uint8(poolMaturity/buyInTime) + 1; ++i) {\n\t\t\tpoolAddresses[i] = address(allPools[i]);\n\t\t}\t\n\t\treturn poolAddresses;\n\t}*/\n\n\tfunction getMaturity() public view returns (uint) {\n\t\treturn startTime + poolMaturity + (uint(poolMaturity/buyInTime)+1-nextToMature)*buyInTime;\n\t}\n}\n",
  "sourcePath": "/home/daniel/truffle_projects/LearnAndEarn/contracts/Course.sol",
  "compiler": {
    "name": "solc",
    "version": "0.6.7+commit.b8d736ae.Emscripten.clang"
  },
  "schemaVersion": "3.1.0",
  "updatedAt": "2020-05-13T23:14:46.635Z",
  "devdoc": {
    "methods": {}
  },
  "userdoc": {
    "methods": {}
  }
}