{
  "contractName": "SinglePool",
  "abi": [
    {
      "inputs": [
        {
          "internalType": "address",
          "name": "_admin",
          "type": "address"
        }
      ],
      "stateMutability": "nonpayable",
      "type": "constructor"
    },
    {
      "inputs": [],
      "name": "admin",
      "outputs": [
        {
          "internalType": "address",
          "name": "",
          "type": "address"
        }
      ],
      "stateMutability": "view",
      "type": "function"
    },
    {
      "inputs": [],
      "name": "numberCompleted",
      "outputs": [
        {
          "internalType": "uint256",
          "name": "",
          "type": "uint256"
        }
      ],
      "stateMutability": "view",
      "type": "function"
    },
    {
      "inputs": [
        {
          "internalType": "address",
          "name": "completer",
          "type": "address"
        }
      ],
      "name": "addCompleter",
      "outputs": [],
      "stateMutability": "nonpayable",
      "type": "function"
    },
    {
      "inputs": [
        {
          "internalType": "address",
          "name": "tokenAddress",
          "type": "address"
        }
      ],
      "name": "reset",
      "outputs": [],
      "stateMutability": "nonpayable",
      "type": "function"
    },
    {
      "inputs": [],
      "name": "getAdmin",
      "outputs": [
        {
          "internalType": "address",
          "name": "",
          "type": "address"
        }
      ],
      "stateMutability": "view",
      "type": "function"
    }
  ],
  "bytecode": "0x6080604052600060045534801561001557600080fd5b506040516108f43803806108f48339818101604052602081101561003857600080fd5b8101908080519060200190929190505050806000806101000a81548173ffffffffffffffffffffffffffffffffffffffff021916908373ffffffffffffffffffffffffffffffffffffffff16021790555033600160006101000a81548173ffffffffffffffffffffffffffffffffffffffff021916908373ffffffffffffffffffffffffffffffffffffffff1602179055505061081a806100da6000396000f3fe608060405234801561001057600080fd5b50600436106100575760003560e01c80630a91bc1d1461005c5780636b8ab97d146100a05780636e9960c3146100e4578063cde0d6721461012e578063f851a4401461014c575b600080fd5b61009e6004803603602081101561007257600080fd5b81019080803573ffffffffffffffffffffffffffffffffffffffff169060200190929190505050610196565b005b6100e2600480360360208110156100b657600080fd5b81019080803573ffffffffffffffffffffffffffffffffffffffff1690602001909291905050506102ee565b005b6100ec610790565b604051808273ffffffffffffffffffffffffffffffffffffffff1673ffffffffffffffffffffffffffffffffffffffff16815260200191505060405180910390f35b6101366107b9565b6040518082815260200191505060405180910390f35b6101546107bf565b604051808273ffffffffffffffffffffffffffffffffffffffff1673ffffffffffffffffffffffffffffffffffffffff16815260200191505060405180910390f35b6000809054906101000a900473ffffffffffffffffffffffffffffffffffffffff1673ffffffffffffffffffffffffffffffffffffffff163373ffffffffffffffffffffffffffffffffffffffff16146101ef57600080fd5b60006004541461029a57600360009054906101000a900473ffffffffffffffffffffffffffffffffffffffff16600260008373ffffffffffffffffffffffffffffffffffffffff1673ffffffffffffffffffffffffffffffffffffffff16815260200190815260200160002060006101000a81548173ffffffffffffffffffffffffffffffffffffffff021916908373ffffffffffffffffffffffffffffffffffffffff1602179055505b80600360006101000a81548173ffffffffffffffffffffffffffffffffffffffff021916908373ffffffffffffffffffffffffffffffffffffffff1602179055506004600081546001019190508190555050565b600160009054906101000a900473ffffffffffffffffffffffffffffffffffffffff1673ffffffffffffffffffffffffffffffffffffffff163373ffffffffffffffffffffffffffffffffffffffff161461034857600080fd5b60008190506000600454146105af5760006004548273ffffffffffffffffffffffffffffffffffffffff166370a08231306040518263ffffffff1660e01b8152600401808273ffffffffffffffffffffffffffffffffffffffff1673ffffffffffffffffffffffffffffffffffffffff16815260200191505060206040518083038186803b1580156103d957600080fd5b505afa1580156103ed573d6000803e3d6000fd5b505050506040513d602081101561040357600080fd5b81019080805190602001909291905050508161041b57fe5b0490506000600360009054906101000a900473ffffffffffffffffffffffffffffffffffffffff1690505b600073ffffffffffffffffffffffffffffffffffffffff168173ffffffffffffffffffffffffffffffffffffffff16146105a4578273ffffffffffffffffffffffffffffffffffffffff1663a9059cbb82846040518363ffffffff1660e01b8152600401808373ffffffffffffffffffffffffffffffffffffffff1673ffffffffffffffffffffffffffffffffffffffff16815260200182815260200192505050602060405180830381600087803b15801561050157600080fd5b505af1158015610515573d6000803e3d6000fd5b505050506040513d602081101561052b57600080fd5b810190808051906020019092919050505050600260008273ffffffffffffffffffffffffffffffffffffffff1673ffffffffffffffffffffffffffffffffffffffff16815260200190815260200160002060009054906101000a900473ffffffffffffffffffffffffffffffffffffffff169050610446565b600060048190555050505b8073ffffffffffffffffffffffffffffffffffffffff1663a9059cbb6000809054906101000a900473ffffffffffffffffffffffffffffffffffffffff168373ffffffffffffffffffffffffffffffffffffffff166370a08231306040518263ffffffff1660e01b8152600401808273ffffffffffffffffffffffffffffffffffffffff1673ffffffffffffffffffffffffffffffffffffffff16815260200191505060206040518083038186803b15801561066a57600080fd5b505afa15801561067e573d6000803e3d6000fd5b505050506040513d602081101561069457600080fd5b81019080805190602001909291905050506040518363ffffffff1660e01b8152600401808373ffffffffffffffffffffffffffffffffffffffff1673ffffffffffffffffffffffffffffffffffffffff16815260200182815260200192505050602060405180830381600087803b15801561070e57600080fd5b505af1158015610722573d6000803e3d6000fd5b505050506040513d602081101561073857600080fd5b8101908080519060200190929190505050506000600360006101000a81548173ffffffffffffffffffffffffffffffffffffffff021916908373ffffffffffffffffffffffffffffffffffffffff1602179055505050565b60008060009054906101000a900473ffffffffffffffffffffffffffffffffffffffff16905090565b60045481565b6000809054906101000a900473ffffffffffffffffffffffffffffffffffffffff168156fea2646970667358221220f3e80602e908148cd541d38e5cf1fd3efe3d8519600d2811300ce58204ef0a3064736f6c63430006070033",
  "immutableReferences": {},
  "source": "pragma solidity >=0.4.21 < 0.7.0;\n\nimport \"../../openzeppelin/node_modules/@openzeppelin/contracts/token/ERC20/IERC20.sol\";\n\ncontract SinglePool {\n\taddress public admin;\n\taddress courseContract;\n\tmapping (address => address) private completed;\n\taddress private lastCompleted;\n\tuint public numberCompleted = 0;\n\t\n\tmodifier adminOnly {\n                require (msg.sender == admin);\n                _;\n        }\n\t\n\tmodifier courseContractOnly {\n\t\trequire (msg.sender == courseContract);\n\t\t_;\n\t}\n\t\n\tconstructor(address _admin) public {\n\t\tadmin = _admin;\n\t\tcourseContract = msg.sender;\n\t}\n\t\n\tfunction addCompleter( address completer ) public adminOnly {\n                if ( numberCompleted != 0 )\n                        completed[completer] = lastCompleted;\n                lastCompleted = completer;\n                ++numberCompleted;\n        }\n\t\n\tfunction reset(address tokenAddress) public courseContractOnly {\n\t\tIERC20 token = IERC20(tokenAddress);\n\t\tif (numberCompleted != 0) {\n\t\t\tuint payOutAmount = token.balanceOf(address(this)) / numberCompleted;\n\t\t\taddress giveTo = lastCompleted;\n\t\t\twhile (giveTo != address(0)) {\n\t\t\t\ttoken.transfer(giveTo, payOutAmount);\n\t\t\t\tgiveTo = completed[giveTo];\n\t\t\t}\n\t\t\tnumberCompleted = 0;\n\t\t}\n\t\ttoken.transfer(admin, token.balanceOf(address(this))); \n\t\tlastCompleted = address(0);\n\t}\n\t\n\tfunction getAdmin() public view returns (address) {\n\t\treturn admin;\n\t}\n}\n",
  "sourcePath": "/home/daniel/truffle_projects/LearnAndEarn/contracts/SinglePool.sol",
  "compiler": {
    "name": "solc",
    "version": "0.6.7+commit.b8d736ae.Emscripten.clang"
  },
  "schemaVersion": "3.1.0",
  "updatedAt": "2020-05-13T21:54:01.694Z",
  "devdoc": {
    "methods": {}
  },
  "userdoc": {
    "methods": {}
  }
}