{
  "contractName": "SinglePool",
  "abi": [
    {
      "inputs": [
        {
          "internalType": "address",
          "name": "_admin",
          "type": "address"
        }
      ],
      "stateMutability": "nonpayable",
      "type": "constructor"
    },
    {
      "inputs": [],
      "name": "admin",
      "outputs": [
        {
          "internalType": "address",
          "name": "",
          "type": "address"
        }
      ],
      "stateMutability": "view",
      "type": "function"
    },
    {
      "inputs": [],
      "name": "numberCompleted",
      "outputs": [
        {
          "internalType": "uint256",
          "name": "",
          "type": "uint256"
        }
      ],
      "stateMutability": "view",
      "type": "function"
    },
    {
      "inputs": [
        {
          "internalType": "address",
          "name": "completer",
          "type": "address"
        }
      ],
      "name": "addCompleter",
      "outputs": [],
      "stateMutability": "nonpayable",
      "type": "function"
    },
    {
      "inputs": [
        {
          "internalType": "address",
          "name": "tokenAddress",
          "type": "address"
        },
        {
          "internalType": "address",
          "name": "lendingPoolProvider",
          "type": "address"
        }
      ],
      "name": "invest",
      "outputs": [],
      "stateMutability": "nonpayable",
      "type": "function"
    },
    {
      "inputs": [
        {
          "internalType": "address",
          "name": "tokenAddress",
          "type": "address"
        },
        {
          "internalType": "address",
          "name": "aTokenAddr",
          "type": "address"
        }
      ],
      "name": "reset",
      "outputs": [],
      "stateMutability": "nonpayable",
      "type": "function"
    },
    {
      "inputs": [],
      "name": "getAdmin",
      "outputs": [
        {
          "internalType": "address",
          "name": "",
          "type": "address"
        }
      ],
      "stateMutability": "view",
      "type": "function"
    }
  ],
  "bytecode": "0x6080604052600060045534801561001557600080fd5b50604051610ef3380380610ef38339818101604052602081101561003857600080fd5b8101908080519060200190929190505050806000806101000a81548173ffffffffffffffffffffffffffffffffffffffff021916908373ffffffffffffffffffffffffffffffffffffffff16021790555033600160006101000a81548173ffffffffffffffffffffffffffffffffffffffff021916908373ffffffffffffffffffffffffffffffffffffffff16021790555050610e19806100da6000396000f3fe608060405234801561001057600080fd5b50600436106100625760003560e01c8063056d380c146100675780630a91bc1d146100cb5780636e9960c31461010f578063cde0d67214610159578063f851a44014610177578063ff8a4efe146101c1575b600080fd5b6100c96004803603604081101561007d57600080fd5b81019080803573ffffffffffffffffffffffffffffffffffffffff169060200190929190803573ffffffffffffffffffffffffffffffffffffffff169060200190929190505050610225565b005b61010d600480360360208110156100e157600080fd5b81019080803573ffffffffffffffffffffffffffffffffffffffff1690602001909291905050506107f0565b005b610117610948565b604051808273ffffffffffffffffffffffffffffffffffffffff1673ffffffffffffffffffffffffffffffffffffffff16815260200191505060405180910390f35b610161610971565b6040518082815260200191505060405180910390f35b61017f610977565b604051808273ffffffffffffffffffffffffffffffffffffffff1673ffffffffffffffffffffffffffffffffffffffff16815260200191505060405180910390f35b610223600480360360408110156101d757600080fd5b81019080803573ffffffffffffffffffffffffffffffffffffffff169060200190929190803573ffffffffffffffffffffffffffffffffffffffff16906020019092919050505061099c565b005b600160009054906101000a900473ffffffffffffffffffffffffffffffffffffffff1673ffffffffffffffffffffffffffffffffffffffff163373ffffffffffffffffffffffffffffffffffffffff161461027f57600080fd5b60008190508073ffffffffffffffffffffffffffffffffffffffff1663db006a758273ffffffffffffffffffffffffffffffffffffffff166370a08231306040518263ffffffff1660e01b8152600401808273ffffffffffffffffffffffffffffffffffffffff1673ffffffffffffffffffffffffffffffffffffffff16815260200191505060206040518083038186803b15801561031d57600080fd5b505afa158015610331573d6000803e3d6000fd5b505050506040513d602081101561034757600080fd5b81019080805190602001909291905050506040518263ffffffff1660e01b815260040180828152602001915050600060405180830381600087803b15801561038e57600080fd5b505af11580156103a2573d6000803e3d6000fd5b50505050600083905060006004541461060d5760006004548273ffffffffffffffffffffffffffffffffffffffff166370a08231306040518263ffffffff1660e01b8152600401808273ffffffffffffffffffffffffffffffffffffffff1673ffffffffffffffffffffffffffffffffffffffff16815260200191505060206040518083038186803b15801561043757600080fd5b505afa15801561044b573d6000803e3d6000fd5b505050506040513d602081101561046157600080fd5b81019080805190602001909291905050508161047957fe5b0490506000600360009054906101000a900473ffffffffffffffffffffffffffffffffffffffff1690505b600073ffffffffffffffffffffffffffffffffffffffff168173ffffffffffffffffffffffffffffffffffffffff1614610602578273ffffffffffffffffffffffffffffffffffffffff1663a9059cbb82846040518363ffffffff1660e01b8152600401808373ffffffffffffffffffffffffffffffffffffffff1673ffffffffffffffffffffffffffffffffffffffff16815260200182815260200192505050602060405180830381600087803b15801561055f57600080fd5b505af1158015610573573d6000803e3d6000fd5b505050506040513d602081101561058957600080fd5b810190808051906020019092919050505050600260008273ffffffffffffffffffffffffffffffffffffffff1673ffffffffffffffffffffffffffffffffffffffff16815260200190815260200160002060009054906101000a900473ffffffffffffffffffffffffffffffffffffffff1690506104a4565b600060048190555050505b8073ffffffffffffffffffffffffffffffffffffffff1663a9059cbb6000809054906101000a900473ffffffffffffffffffffffffffffffffffffffff168373ffffffffffffffffffffffffffffffffffffffff166370a08231306040518263ffffffff1660e01b8152600401808273ffffffffffffffffffffffffffffffffffffffff1673ffffffffffffffffffffffffffffffffffffffff16815260200191505060206040518083038186803b1580156106c857600080fd5b505afa1580156106dc573d6000803e3d6000fd5b505050506040513d60208110156106f257600080fd5b81019080805190602001909291905050506040518363ffffffff1660e01b8152600401808373ffffffffffffffffffffffffffffffffffffffff1673ffffffffffffffffffffffffffffffffffffffff16815260200182815260200192505050602060405180830381600087803b15801561076c57600080fd5b505af1158015610780573d6000803e3d6000fd5b505050506040513d602081101561079657600080fd5b8101908080519060200190929190505050506000600360006101000a81548173ffffffffffffffffffffffffffffffffffffffff021916908373ffffffffffffffffffffffffffffffffffffffff16021790555050505050565b6000809054906101000a900473ffffffffffffffffffffffffffffffffffffffff1673ffffffffffffffffffffffffffffffffffffffff163373ffffffffffffffffffffffffffffffffffffffff161461084957600080fd5b6000600454146108f457600360009054906101000a900473ffffffffffffffffffffffffffffffffffffffff16600260008373ffffffffffffffffffffffffffffffffffffffff1673ffffffffffffffffffffffffffffffffffffffff16815260200190815260200160002060006101000a81548173ffffffffffffffffffffffffffffffffffffffff021916908373ffffffffffffffffffffffffffffffffffffffff1602179055505b80600360006101000a81548173ffffffffffffffffffffffffffffffffffffffff021916908373ffffffffffffffffffffffffffffffffffffffff1602179055506004600081546001019190508190555050565b60008060009054906101000a900473ffffffffffffffffffffffffffffffffffffffff16905090565b60045481565b6000809054906101000a900473ffffffffffffffffffffffffffffffffffffffff1681565b600160009054906101000a900473ffffffffffffffffffffffffffffffffffffffff1673ffffffffffffffffffffffffffffffffffffffff163373ffffffffffffffffffffffffffffffffffffffff16146109f657600080fd5b600082905060008290508173ffffffffffffffffffffffffffffffffffffffff1663095ea7b38273ffffffffffffffffffffffffffffffffffffffff1663ed6ff7606040518163ffffffff1660e01b815260040160206040518083038186803b158015610a6257600080fd5b505afa158015610a76573d6000803e3d6000fd5b505050506040513d6020811015610a8c57600080fd5b81019080805190602001909291905050508473ffffffffffffffffffffffffffffffffffffffff166370a08231306040518263ffffffff1660e01b8152600401808273ffffffffffffffffffffffffffffffffffffffff1673ffffffffffffffffffffffffffffffffffffffff16815260200191505060206040518083038186803b158015610b1a57600080fd5b505afa158015610b2e573d6000803e3d6000fd5b505050506040513d6020811015610b4457600080fd5b81019080805190602001909291905050506040518363ffffffff1660e01b8152600401808373ffffffffffffffffffffffffffffffffffffffff1673ffffffffffffffffffffffffffffffffffffffff16815260200182815260200192505050602060405180830381600087803b158015610bbe57600080fd5b505af1158015610bd2573d6000803e3d6000fd5b505050506040513d6020811015610be857600080fd5b8101908080519060200190929190505050508073ffffffffffffffffffffffffffffffffffffffff16630261bf8b6040518163ffffffff1660e01b815260040160206040518083038186803b158015610c4057600080fd5b505afa158015610c54573d6000803e3d6000fd5b505050506040513d6020811015610c6a57600080fd5b810190808051906020019092919050505073ffffffffffffffffffffffffffffffffffffffff1663d2d0e066858473ffffffffffffffffffffffffffffffffffffffff166370a08231306040518263ffffffff1660e01b8152600401808273ffffffffffffffffffffffffffffffffffffffff1673ffffffffffffffffffffffffffffffffffffffff16815260200191505060206040518083038186803b158015610d1457600080fd5b505afa158015610d28573d6000803e3d6000fd5b505050506040513d6020811015610d3e57600080fd5b810190808051906020019092919050505060006040518463ffffffff1660e01b8152600401808473ffffffffffffffffffffffffffffffffffffffff1673ffffffffffffffffffffffffffffffffffffffff1681526020018381526020018261ffff1681526020019350505050600060405180830381600087803b158015610dc557600080fd5b505af1158015610dd9573d6000803e3d6000fd5b505050505050505056fea2646970667358221220da3dfdf45a2d1bf036c6d8e4d504c954373c646984fad1b786246f54125ead8364736f6c63430006070033",
  "immutableReferences": {},
  "source": "pragma solidity >=0.4.21 < 0.7.0;\n\n// below, the import path is relative to my own directory structure/inability to import\n// npm-installed openzeppelin contracts properly.\n// You will probably have to modify the import path to import IERC20.sol from OpenZeppelin on your machine.\n\n// import OpenZeppelin's IERC20.sol\nimport \"../../openzeppelin/node_modules/@openzeppelin/contracts/token/ERC20/IERC20.sol\";\n// import LendingPoolAddressesProvider.sol\nimport \"../../flashloan-box/contracts/aave/ILendingPoolAddressesProvider.sol\";\n// import LendingPool.sol\nimport \"../../flashloan-box/contracts/aave/ILendingPool.sol\";\n// import aToken.sol\nimport \"./IAToken.sol\";\n\n\n// if deploying via remix:\n/*\n// import OpenZeppelin's IERC20.sol\nimport \"https://github.com/OpenZeppelin/openzeppelin-contracts/blob/master/contracts/token/ERC20/IERC20.sol\";\n// import LendingPoolAddressesProvider.sol\nimport \"https://github.com/aave/flashloan-box/blob/master/contracts/aave/ILendingPoolAddressesProvider.sol\";\n// import LendingPool.sol\nimport \"https://github.com/aave/flashloan-box/blob/master/contracts/aave/ILendingPool.sol\";\n// import aToken.sol\nimport \"IAToken.sol\";\n*/\n\ncontract SinglePool {\n\taddress public admin;\n\taddress courseContract;\n\tmapping (address => address) private completed;\n\taddress private lastCompleted;\n\tuint public numberCompleted = 0;\n\t\n\tmodifier adminOnly {\n                require (msg.sender == admin);\n                _;\n        }\n\t\n\tmodifier courseContractOnly {\n\t\trequire (msg.sender == courseContract);\n\t\t_;\n\t}\n\t\n\tconstructor(address _admin) public {\n\t\tadmin = _admin;\n\t\tcourseContract = msg.sender;\n\t}\n\t\n\tfunction addCompleter( address completer ) public adminOnly {\n                if ( numberCompleted != 0 )\n                        completed[completer] = lastCompleted;\n                lastCompleted = completer;\n                ++numberCompleted;\n        }\n\tfunction invest(address tokenAddress, address lendingPoolProvider) public courseContractOnly {\n\t\tIERC20 token = IERC20(tokenAddress);\n\t\tILendingPoolAddressesProvider provider = ILendingPoolAddressesProvider(lendingPoolProvider);\n\t\ttoken.approve(provider.getLendingPoolCore(), token.balanceOf(address(this)));\n\t\tILendingPool(provider.getLendingPool()).deposit(tokenAddress, token.balanceOf(address(this)), 0);\n\t}\n\t\n\tfunction reset(address tokenAddress, address aTokenAddr) public courseContractOnly {\n\t\tIAToken aaveToken = IAToken(aTokenAddr);\n\t\taaveToken.redeem(aaveToken.balanceOf(address(this)));\n\t\tIERC20 token = IERC20(tokenAddress);\n\t\tif (numberCompleted != 0) {\n\t\t\tuint payOutAmount = token.balanceOf(address(this)) / numberCompleted;\n\t\t\taddress giveTo = lastCompleted;\n\t\t\twhile (giveTo != address(0)) {\n\t\t\t\ttoken.transfer(giveTo, payOutAmount);\n\t\t\t\tgiveTo = completed[giveTo];\n\t\t\t}\n\t\t\tnumberCompleted = 0;\n\t\t}\n\t\ttoken.transfer(admin, token.balanceOf(address(this))); \n\t\tlastCompleted = address(0);\n\t}\n\t\n\tfunction getAdmin() public view returns (address) {\n\t\treturn admin;\n\t}\n}\n",
  "sourcePath": "/home/daniel/truffle_projects/LearnAndEarn/contracts/SinglePool.sol",
  "compiler": {
    "name": "solc",
    "version": "0.6.7+commit.b8d736ae.Emscripten.clang"
  },
  "schemaVersion": "3.1.0",
  "updatedAt": "2020-05-22T18:02:04.210Z",
  "devdoc": {
    "methods": {}
  },
  "userdoc": {
    "methods": {}
  }
}